{
  "_format": "hh-sol-artifact-1",
  "contractName": "AxelarGasService",
  "sourceName": "contracts/gas-service/AxelarGasService.sol",
  "abi": [
    {
      "inputs": [
        {
          "internalType": "address",
          "name": "gasCollector_",
          "type": "address"
        }
      ],
      "stateMutability": "nonpayable",
      "type": "constructor"
    },
    {
      "inputs": [],
      "name": "InvalidAddress",
      "type": "error"
    },
    {
      "inputs": [],
      "name": "InvalidAmounts",
      "type": "error"
    },
    {
      "inputs": [],
      "name": "InvalidCodeHash",
      "type": "error"
    },
    {
      "inputs": [],
      "name": "InvalidImplementation",
      "type": "error"
    },
    {
      "inputs": [],
      "name": "InvalidOwner",
      "type": "error"
    },
    {
      "inputs": [],
      "name": "NativeTransferFailed",
      "type": "error"
    },
    {
      "inputs": [],
      "name": "NotCollector",
      "type": "error"
    },
    {
      "inputs": [],
      "name": "NotOwner",
      "type": "error"
    },
    {
      "inputs": [],
      "name": "NotProxy",
      "type": "error"
    },
    {
      "inputs": [],
      "name": "NothingReceived",
      "type": "error"
    },
    {
      "inputs": [],
      "name": "SetupFailed",
      "type": "error"
    },
    {
      "inputs": [],
      "name": "TokenTransferFailed",
      "type": "error"
    },
    {
      "anonymous": false,
      "inputs": [
        {
          "indexed": true,
          "internalType": "bytes32",
          "name": "txHash",
          "type": "bytes32"
        },
        {
          "indexed": true,
          "internalType": "uint256",
          "name": "logIndex",
          "type": "uint256"
        },
        {
          "indexed": false,
          "internalType": "address",
          "name": "gasToken",
          "type": "address"
        },
        {
          "indexed": false,
          "internalType": "uint256",
          "name": "gasFeeAmount",
          "type": "uint256"
        },
        {
          "indexed": false,
          "internalType": "address",
          "name": "refundAddress",
          "type": "address"
        }
      ],
      "name": "ExpressGasAdded",
      "type": "event"
    },
    {
      "anonymous": false,
      "inputs": [
        {
          "indexed": true,
          "internalType": "bytes32",
          "name": "txHash",
          "type": "bytes32"
        },
        {
          "indexed": true,
          "internalType": "uint256",
          "name": "logIndex",
          "type": "uint256"
        },
        {
          "indexed": false,
          "internalType": "address",
          "name": "gasToken",
          "type": "address"
        },
        {
          "indexed": false,
          "internalType": "uint256",
          "name": "gasFeeAmount",
          "type": "uint256"
        },
        {
          "indexed": false,
          "internalType": "address",
          "name": "refundAddress",
          "type": "address"
        }
      ],
      "name": "GasAdded",
      "type": "event"
    },
    {
      "anonymous": false,
      "inputs": [
        {
          "indexed": true,
          "internalType": "address",
          "name": "sourceAddress",
          "type": "address"
        },
        {
          "indexed": false,
          "internalType": "string",
          "name": "destinationChain",
          "type": "string"
        },
        {
          "indexed": false,
          "internalType": "string",
          "name": "destinationAddress",
          "type": "string"
        },
        {
          "indexed": true,
          "internalType": "bytes32",
          "name": "payloadHash",
          "type": "bytes32"
        },
        {
          "indexed": false,
          "internalType": "address",
          "name": "gasToken",
          "type": "address"
        },
        {
          "indexed": false,
          "internalType": "uint256",
          "name": "gasFeeAmount",
          "type": "uint256"
        },
        {
          "indexed": false,
          "internalType": "address",
          "name": "refundAddress",
          "type": "address"
        }
      ],
      "name": "GasPaidForContractCall",
      "type": "event"
    },
    {
      "anonymous": false,
      "inputs": [
        {
          "indexed": true,
          "internalType": "address",
          "name": "sourceAddress",
          "type": "address"
        },
        {
          "indexed": false,
          "internalType": "string",
          "name": "destinationChain",
          "type": "string"
        },
        {
          "indexed": false,
          "internalType": "string",
          "name": "destinationAddress",
          "type": "string"
        },
        {
          "indexed": true,
          "internalType": "bytes32",
          "name": "payloadHash",
          "type": "bytes32"
        },
        {
          "indexed": false,
          "internalType": "string",
          "name": "symbol",
          "type": "string"
        },
        {
          "indexed": false,
          "internalType": "uint256",
          "name": "amount",
          "type": "uint256"
        },
        {
          "indexed": false,
          "internalType": "address",
          "name": "gasToken",
          "type": "address"
        },
        {
          "indexed": false,
          "internalType": "uint256",
          "name": "gasFeeAmount",
          "type": "uint256"
        },
        {
          "indexed": false,
          "internalType": "address",
          "name": "refundAddress",
          "type": "address"
        }
      ],
      "name": "GasPaidForContractCallWithToken",
      "type": "event"
    },
    {
      "anonymous": false,
      "inputs": [
        {
          "indexed": true,
          "internalType": "address",
          "name": "sourceAddress",
          "type": "address"
        },
        {
          "indexed": false,
          "internalType": "string",
          "name": "destinationChain",
          "type": "string"
        },
        {
          "indexed": false,
          "internalType": "string",
          "name": "destinationAddress",
          "type": "string"
        },
        {
          "indexed": true,
          "internalType": "bytes32",
          "name": "payloadHash",
          "type": "bytes32"
        },
        {
          "indexed": false,
          "internalType": "string",
          "name": "symbol",
          "type": "string"
        },
        {
          "indexed": false,
          "internalType": "uint256",
          "name": "amount",
          "type": "uint256"
        },
        {
          "indexed": false,
          "internalType": "address",
          "name": "gasToken",
          "type": "address"
        },
        {
          "indexed": false,
          "internalType": "uint256",
          "name": "gasFeeAmount",
          "type": "uint256"
        },
        {
          "indexed": false,
          "internalType": "address",
          "name": "refundAddress",
          "type": "address"
        }
      ],
      "name": "GasPaidForExpressCallWithToken",
      "type": "event"
    },
    {
      "anonymous": false,
      "inputs": [
        {
          "indexed": true,
          "internalType": "bytes32",
          "name": "txHash",
          "type": "bytes32"
        },
        {
          "indexed": true,
          "internalType": "uint256",
          "name": "logIndex",
          "type": "uint256"
        },
        {
          "indexed": false,
          "internalType": "uint256",
          "name": "gasFeeAmount",
          "type": "uint256"
        },
        {
          "indexed": false,
          "internalType": "address",
          "name": "refundAddress",
          "type": "address"
        }
      ],
      "name": "NativeExpressGasAdded",
      "type": "event"
    },
    {
      "anonymous": false,
      "inputs": [
        {
          "indexed": true,
          "internalType": "bytes32",
          "name": "txHash",
          "type": "bytes32"
        },
        {
          "indexed": true,
          "internalType": "uint256",
          "name": "logIndex",
          "type": "uint256"
        },
        {
          "indexed": false,
          "internalType": "uint256",
          "name": "gasFeeAmount",
          "type": "uint256"
        },
        {
          "indexed": false,
          "internalType": "address",
          "name": "refundAddress",
          "type": "address"
        }
      ],
      "name": "NativeGasAdded",
      "type": "event"
    },
    {
      "anonymous": false,
      "inputs": [
        {
          "indexed": true,
          "internalType": "address",
          "name": "sourceAddress",
          "type": "address"
        },
        {
          "indexed": false,
          "internalType": "string",
          "name": "destinationChain",
          "type": "string"
        },
        {
          "indexed": false,
          "internalType": "string",
          "name": "destinationAddress",
          "type": "string"
        },
        {
          "indexed": true,
          "internalType": "bytes32",
          "name": "payloadHash",
          "type": "bytes32"
        },
        {
          "indexed": false,
          "internalType": "uint256",
          "name": "gasFeeAmount",
          "type": "uint256"
        },
        {
          "indexed": false,
          "internalType": "address",
          "name": "refundAddress",
          "type": "address"
        }
      ],
      "name": "NativeGasPaidForContractCall",
      "type": "event"
    },
    {
      "anonymous": false,
      "inputs": [
        {
          "indexed": true,
          "internalType": "address",
          "name": "sourceAddress",
          "type": "address"
        },
        {
          "indexed": false,
          "internalType": "string",
          "name": "destinationChain",
          "type": "string"
        },
        {
          "indexed": false,
          "internalType": "string",
          "name": "destinationAddress",
          "type": "string"
        },
        {
          "indexed": true,
          "internalType": "bytes32",
          "name": "payloadHash",
          "type": "bytes32"
        },
        {
          "indexed": false,
          "internalType": "string",
          "name": "symbol",
          "type": "string"
        },
        {
          "indexed": false,
          "internalType": "uint256",
          "name": "amount",
          "type": "uint256"
        },
        {
          "indexed": false,
          "internalType": "uint256",
          "name": "gasFeeAmount",
          "type": "uint256"
        },
        {
          "indexed": false,
          "internalType": "address",
          "name": "refundAddress",
          "type": "address"
        }
      ],
      "name": "NativeGasPaidForContractCallWithToken",
      "type": "event"
    },
    {
      "anonymous": false,
      "inputs": [
        {
          "indexed": true,
          "internalType": "address",
          "name": "sourceAddress",
          "type": "address"
        },
        {
          "indexed": false,
          "internalType": "string",
          "name": "destinationChain",
          "type": "string"
        },
        {
          "indexed": false,
          "internalType": "string",
          "name": "destinationAddress",
          "type": "string"
        },
        {
          "indexed": true,
          "internalType": "bytes32",
          "name": "payloadHash",
          "type": "bytes32"
        },
        {
          "indexed": false,
          "internalType": "string",
          "name": "symbol",
          "type": "string"
        },
        {
          "indexed": false,
          "internalType": "uint256",
          "name": "amount",
          "type": "uint256"
        },
        {
          "indexed": false,
          "internalType": "uint256",
          "name": "gasFeeAmount",
          "type": "uint256"
        },
        {
          "indexed": false,
          "internalType": "address",
          "name": "refundAddress",
          "type": "address"
        }
      ],
      "name": "NativeGasPaidForExpressCallWithToken",
      "type": "event"
    },
    {
      "anonymous": false,
      "inputs": [
        {
          "indexed": true,
          "internalType": "address",
          "name": "newOwner",
          "type": "address"
        }
      ],
      "name": "OwnershipTransferred",
      "type": "event"
    },
    {
      "anonymous": false,
      "inputs": [
        {
          "indexed": true,
          "internalType": "bytes32",
          "name": "txHash",
          "type": "bytes32"
        },
        {
          "indexed": true,
          "internalType": "uint256",
          "name": "logIndex",
          "type": "uint256"
        },
        {
          "indexed": false,
          "internalType": "address payable",
          "name": "receiver",
          "type": "address"
        },
        {
          "indexed": false,
          "internalType": "address",
          "name": "token",
          "type": "address"
        },
        {
          "indexed": false,
          "internalType": "uint256",
          "name": "amount",
          "type": "uint256"
        }
      ],
      "name": "Refunded",
      "type": "event"
    },
    {
      "anonymous": false,
      "inputs": [
        {
          "indexed": true,
          "internalType": "address",
          "name": "newImplementation",
          "type": "address"
        }
      ],
      "name": "Upgraded",
      "type": "event"
    },
    {
      "inputs": [
        {
          "internalType": "bytes32",
          "name": "txHash",
          "type": "bytes32"
        },
        {
          "internalType": "uint256",
          "name": "logIndex",
          "type": "uint256"
        },
        {
          "internalType": "address",
          "name": "gasToken",
          "type": "address"
        },
        {
          "internalType": "uint256",
          "name": "gasFeeAmount",
          "type": "uint256"
        },
        {
          "internalType": "address",
          "name": "refundAddress",
          "type": "address"
        }
      ],
      "name": "addExpressGas",
      "outputs": [],
      "stateMutability": "nonpayable",
      "type": "function"
    },
    {
      "inputs": [
        {
          "internalType": "bytes32",
          "name": "txHash",
          "type": "bytes32"
        },
        {
          "internalType": "uint256",
          "name": "logIndex",
          "type": "uint256"
        },
        {
          "internalType": "address",
          "name": "gasToken",
          "type": "address"
        },
        {
          "internalType": "uint256",
          "name": "gasFeeAmount",
          "type": "uint256"
        },
        {
          "internalType": "address",
          "name": "refundAddress",
          "type": "address"
        }
      ],
      "name": "addGas",
      "outputs": [],
      "stateMutability": "nonpayable",
      "type": "function"
    },
    {
      "inputs": [
        {
          "internalType": "bytes32",
          "name": "txHash",
          "type": "bytes32"
        },
        {
          "internalType": "uint256",
          "name": "logIndex",
          "type": "uint256"
        },
        {
          "internalType": "address",
          "name": "refundAddress",
          "type": "address"
        }
      ],
      "name": "addNativeExpressGas",
      "outputs": [],
      "stateMutability": "payable",
      "type": "function"
    },
    {
      "inputs": [
        {
          "internalType": "bytes32",
          "name": "txHash",
          "type": "bytes32"
        },
        {
          "internalType": "uint256",
          "name": "logIndex",
          "type": "uint256"
        },
        {
          "internalType": "address",
          "name": "refundAddress",
          "type": "address"
        }
      ],
      "name": "addNativeGas",
      "outputs": [],
      "stateMutability": "payable",
      "type": "function"
    },
    {
      "inputs": [
        {
          "internalType": "address payable",
          "name": "receiver",
          "type": "address"
        },
        {
          "internalType": "address[]",
          "name": "tokens",
          "type": "address[]"
        },
        {
          "internalType": "uint256[]",
          "name": "amounts",
          "type": "uint256[]"
        }
      ],
      "name": "collectFees",
      "outputs": [],
      "stateMutability": "nonpayable",
      "type": "function"
    },
    {
      "inputs": [],
      "name": "contractId",
      "outputs": [
        {
          "internalType": "bytes32",
          "name": "",
          "type": "bytes32"
        }
      ],
      "stateMutability": "pure",
      "type": "function"
    },
    {
      "inputs": [],
      "name": "gasCollector",
      "outputs": [
        {
          "internalType": "address",
          "name": "",
          "type": "address"
        }
      ],
      "stateMutability": "view",
      "type": "function"
    },
    {
      "inputs": [],
      "name": "implementation",
      "outputs": [
        {
          "internalType": "address",
          "name": "implementation_",
          "type": "address"
        }
      ],
      "stateMutability": "view",
      "type": "function"
    },
    {
      "inputs": [],
      "name": "owner",
      "outputs": [
        {
          "internalType": "address",
          "name": "owner_",
          "type": "address"
        }
      ],
      "stateMutability": "view",
      "type": "function"
    },
    {
      "inputs": [
        {
          "internalType": "address",
          "name": "sender",
          "type": "address"
        },
        {
          "internalType": "string",
          "name": "destinationChain",
          "type": "string"
        },
        {
          "internalType": "string",
          "name": "destinationAddress",
          "type": "string"
        },
        {
          "internalType": "bytes",
          "name": "payload",
          "type": "bytes"
        },
        {
          "internalType": "address",
          "name": "gasToken",
          "type": "address"
        },
        {
          "internalType": "uint256",
          "name": "gasFeeAmount",
          "type": "uint256"
        },
        {
          "internalType": "address",
          "name": "refundAddress",
          "type": "address"
        }
      ],
      "name": "payGasForContractCall",
      "outputs": [],
      "stateMutability": "nonpayable",
      "type": "function"
    },
    {
      "inputs": [
        {
          "internalType": "address",
          "name": "sender",
          "type": "address"
        },
        {
          "internalType": "string",
          "name": "destinationChain",
          "type": "string"
        },
        {
          "internalType": "string",
          "name": "destinationAddress",
          "type": "string"
        },
        {
          "internalType": "bytes",
          "name": "payload",
          "type": "bytes"
        },
        {
          "internalType": "string",
          "name": "symbol",
          "type": "string"
        },
        {
          "internalType": "uint256",
          "name": "amount",
          "type": "uint256"
        },
        {
          "internalType": "address",
          "name": "gasToken",
          "type": "address"
        },
        {
          "internalType": "uint256",
          "name": "gasFeeAmount",
          "type": "uint256"
        },
        {
          "internalType": "address",
          "name": "refundAddress",
          "type": "address"
        }
      ],
      "name": "payGasForContractCallWithToken",
      "outputs": [],
      "stateMutability": "nonpayable",
      "type": "function"
    },
    {
      "inputs": [
        {
          "internalType": "address",
          "name": "sender",
          "type": "address"
        },
        {
          "internalType": "string",
          "name": "destinationChain",
          "type": "string"
        },
        {
          "internalType": "string",
          "name": "destinationAddress",
          "type": "string"
        },
        {
          "internalType": "bytes",
          "name": "payload",
          "type": "bytes"
        },
        {
          "internalType": "string",
          "name": "symbol",
          "type": "string"
        },
        {
          "internalType": "uint256",
          "name": "amount",
          "type": "uint256"
        },
        {
          "internalType": "address",
          "name": "gasToken",
          "type": "address"
        },
        {
          "internalType": "uint256",
          "name": "gasFeeAmount",
          "type": "uint256"
        },
        {
          "internalType": "address",
          "name": "refundAddress",
          "type": "address"
        }
      ],
      "name": "payGasForExpressCallWithToken",
      "outputs": [],
      "stateMutability": "nonpayable",
      "type": "function"
    },
    {
      "inputs": [
        {
          "internalType": "address",
          "name": "sender",
          "type": "address"
        },
        {
          "internalType": "string",
          "name": "destinationChain",
          "type": "string"
        },
        {
          "internalType": "string",
          "name": "destinationAddress",
          "type": "string"
        },
        {
          "internalType": "bytes",
          "name": "payload",
          "type": "bytes"
        },
        {
          "internalType": "address",
          "name": "refundAddress",
          "type": "address"
        }
      ],
      "name": "payNativeGasForContractCall",
      "outputs": [],
      "stateMutability": "payable",
      "type": "function"
    },
    {
      "inputs": [
        {
          "internalType": "address",
          "name": "sender",
          "type": "address"
        },
        {
          "internalType": "string",
          "name": "destinationChain",
          "type": "string"
        },
        {
          "internalType": "string",
          "name": "destinationAddress",
          "type": "string"
        },
        {
          "internalType": "bytes",
          "name": "payload",
          "type": "bytes"
        },
        {
          "internalType": "string",
          "name": "symbol",
          "type": "string"
        },
        {
          "internalType": "uint256",
          "name": "amount",
          "type": "uint256"
        },
        {
          "internalType": "address",
          "name": "refundAddress",
          "type": "address"
        }
      ],
      "name": "payNativeGasForContractCallWithToken",
      "outputs": [],
      "stateMutability": "payable",
      "type": "function"
    },
    {
      "inputs": [
        {
          "internalType": "address",
          "name": "sender",
          "type": "address"
        },
        {
          "internalType": "string",
          "name": "destinationChain",
          "type": "string"
        },
        {
          "internalType": "string",
          "name": "destinationAddress",
          "type": "string"
        },
        {
          "internalType": "bytes",
          "name": "payload",
          "type": "bytes"
        },
        {
          "internalType": "string",
          "name": "symbol",
          "type": "string"
        },
        {
          "internalType": "uint256",
          "name": "amount",
          "type": "uint256"
        },
        {
          "internalType": "address",
          "name": "refundAddress",
          "type": "address"
        }
      ],
      "name": "payNativeGasForExpressCallWithToken",
      "outputs": [],
      "stateMutability": "payable",
      "type": "function"
    },
    {
      "inputs": [
        {
          "internalType": "bytes32",
          "name": "txHash",
          "type": "bytes32"
        },
        {
          "internalType": "uint256",
          "name": "logIndex",
          "type": "uint256"
        },
        {
          "internalType": "address payable",
          "name": "receiver",
          "type": "address"
        },
        {
          "internalType": "address",
          "name": "token",
          "type": "address"
        },
        {
          "internalType": "uint256",
          "name": "amount",
          "type": "uint256"
        }
      ],
      "name": "refund",
      "outputs": [],
      "stateMutability": "nonpayable",
      "type": "function"
    },
    {
      "inputs": [
        {
          "internalType": "address payable",
          "name": "receiver",
          "type": "address"
        },
        {
          "internalType": "address",
          "name": "token",
          "type": "address"
        },
        {
          "internalType": "uint256",
          "name": "amount",
          "type": "uint256"
        }
      ],
      "name": "refund",
      "outputs": [],
      "stateMutability": "nonpayable",
      "type": "function"
    },
    {
      "inputs": [
        {
          "internalType": "bytes",
          "name": "data",
          "type": "bytes"
        }
      ],
      "name": "setup",
      "outputs": [],
      "stateMutability": "nonpayable",
      "type": "function"
    },
    {
      "inputs": [
        {
          "internalType": "address",
          "name": "newOwner",
          "type": "address"
        }
      ],
      "name": "transferOwnership",
      "outputs": [],
      "stateMutability": "nonpayable",
      "type": "function"
    },
    {
      "inputs": [
        {
          "internalType": "address",
          "name": "newImplementation",
          "type": "address"
        },
        {
          "internalType": "bytes32",
          "name": "newImplementationCodeHash",
          "type": "bytes32"
        },
        {
          "internalType": "bytes",
          "name": "params",
          "type": "bytes"
        }
      ],
      "name": "upgrade",
      "outputs": [],
      "stateMutability": "nonpayable",
      "type": "function"
    }
  ],
  "bytecode": "0x60a060405234801561001057600080fd5b50604051611daa380380611daa83398101604081905261002f91610040565b6001600160a01b0316608052610070565b60006020828403121561005257600080fd5b81516001600160a01b038116811461006957600080fd5b9392505050565b608051611d0a6100a0600039600081816102d9015281816104ab0152818161083401526108f90152611d0a6000f3fe60806040526004361061015f5760003560e01c8063892b5007116100c0578063c62c200211610074578063edb6b3a511610059578063edb6b3a5146103b5578063f2fde38b146103d5578063fd09e3bd146103f557600080fd5b8063c62c20021461038f578063cd433ada146103a257600080fd5b80639ded06df116100a55780639ded06df1461032f578063a3499c731461034f578063ab1999ba1461036f57600080fd5b8063892b5007146102c75780638da5cb5b146102fb57600080fd5b806336504721116101175780635c60da1b116100fc5780635c60da1b1461021f5780638291286c1461026c57806382ad6f35146102a757600080fd5b806336504721146101ec5780634d2384891461020c57600080fd5b806317a49f7c1161014857806317a49f7c146101995780632e9b7470146101b95780632edd2aa8146101cc57600080fd5b80630c93e3bb146101645780631055eaaf14610179575b600080fd5b610177610172366004611337565b610415565b005b34801561018557600080fd5b5061017761019436600461143c565b6104a0565b3480156101a557600080fd5b506101776101b4366004611562565b61069a565b6101776101c7366004611680565b610726565b3480156101d857600080fd5b506101776101e7366004611773565b6107ba565b3480156101f857600080fd5b506101776102073660046117c9565b610829565b61017761021a36600461181b565b610885565b34801561022b57600080fd5b507f360894a13ba1a3210667c828492db98dca3e2076cc3735a920a3ca505d382bbc545b6040516001600160a01b0390911681526020015b60405180910390f35b34801561027857600080fd5b506040517ffaa2f015f2ce5aee225904728de2def86eb8837491efd21f1a04fc20d8e923f68152602001610263565b3480156102b357600080fd5b506101776102c2366004611854565b6108ee565b3480156102d357600080fd5b5061024f7f000000000000000000000000000000000000000000000000000000000000000081565b34801561030757600080fd5b507f02016836a56b71f0d02689e69e326f4f4c1b9057164ef592671cf0d37c8040c05461024f565b34801561033b57600080fd5b5061017761034a366004611895565b610949565b34801561035b57600080fd5b5061017761036a3660046118d7565b6109b8565b34801561037b57600080fd5b5061017761038a366004611773565b610cd4565b61017761039d366004611680565b610d38565b6101776103b036600461181b565b610db7565b3480156103c157600080fd5b506101776103d0366004611562565b610e17565b3480156103e157600080fd5b506101776103f0366004611933565b610e8d565b34801561040157600080fd5b50610177610410366004611957565b610f75565b346104335760405163b5c74a2760e01b815260040160405180910390fd5b8282604051610443929190611a2f565b6040518091039020886001600160a01b03167f617332c1832058df6ee45fcbdf471251474c9945a8e5d229287a21a5f67ccf0a89898989348860405161048e96959493929190611a68565b60405180910390a35050505050505050565b336001600160a01b037f000000000000000000000000000000000000000000000000000000000000000016146104e857604051623bb10360e91b815260040160405180910390fd5b6001600160a01b03851661050f5760405163e6c4247b60e01b815260040160405180910390fd5b8281811461053057604051636c2b7e2d60e11b815260040160405180910390fd5b60005b8181101561069157600086868381811061054f5761054f611ab2565b90506020020160208101906105649190611933565b9050600085858481811061057a5761057a611ab2565b90506020020135905080600014156105a557604051636c2b7e2d60e11b815260040160405180910390fd5b6001600160a01b0382166105d2574781116105cd576105cd6001600160a01b038a1682610ffb565b61067c565b6040517f70a082310000000000000000000000000000000000000000000000000000000081523060048201526001600160a01b038316906370a082319060240160206040518083038186803b15801561062a57600080fd5b505afa15801561063e573d6000803e3d6000fd5b505050506040513d601f19601f820116820180604052508101906106629190611ac8565b811161067c5761067c6001600160a01b0383168a83611042565b5050808061068990611ae1565b915050610533565b50505050505050565b6106af6001600160a01b0384163330856110eb565b86866040516106bf929190611a2f565b60405180910390208c6001600160a01b03167fda4ed638a7ffe9e814722efdb9ad6058c152c19c8564ceffe52e11dda1ca32238d8d8d8d8b8b8b8b8b60405161071099989796959493929190611b36565b60405180910390a3505050505050505050505050565b346107445760405163b5c74a2760e01b815260040160405180910390fd5b8585604051610754929190611a2f565b60405180910390208b6001600160a01b03167f8c092067e86e85e8cfbaf187202ef580cdfd7ec37fbec89191607de73ca800058c8c8c8c8a8a8a348b6040516107a599989796959493929190611bbf565b60405180910390a35050505050505050505050565b6107cf6001600160a01b0384163330856110eb565b604080516001600160a01b03808616825260208201859052831691810191909152849086907ff0b09bf969e7958967e0968e22596f647dd6efa09f4778e0393967b881f4b09f906060015b60405180910390a35050505050565b336001600160a01b037f0000000000000000000000000000000000000000000000000000000000000000161461087157604051623bb10360e91b815260040160405180910390fd5b61087e8585858585611142565b5050505050565b346108a35760405163b5c74a2760e01b815260040160405180910390fd5b604080513481526001600160a01b0383166020820152839185917fb26db521e067acd5c6e345ad92fa1ed06bc7fb2aedd68f35dc7a2e10d636fc9891015b60405180910390a3505050565b336001600160a01b037f0000000000000000000000000000000000000000000000000000000000000000161461093657604051623bb10360e91b815260040160405180910390fd5b610944600080858585611142565b505050565b60006109737f360894a13ba1a3210667c828492db98dca3e2076cc3735a920a3ca505d382bbc5490565b6001600160a01b031614156109b4576040517fbf10dd3a00000000000000000000000000000000000000000000000000000000815260040160405180910390fd5b5050565b336109e17f02016836a56b71f0d02689e69e326f4f4c1b9057164ef592671cf0d37c8040c05490565b6001600160a01b031614610a08576040516330cd747160e01b815260040160405180910390fd5b306001600160a01b0316638291286c6040518163ffffffff1660e01b815260040160206040518083038186803b158015610a4157600080fd5b505afa158015610a55573d6000803e3d6000fd5b505050506040513d601f19601f82011682018060405250810190610a799190611ac8565b846001600160a01b0316638291286c6040518163ffffffff1660e01b815260040160206040518083038186803b158015610ab257600080fd5b505afa158015610ac6573d6000803e3d6000fd5b505050506040513d601f19601f82011682018060405250810190610aea9190611ac8565b14610b21576040517f68155f9a00000000000000000000000000000000000000000000000000000000815260040160405180910390fd5b836001600160a01b03163f8314610b64576040517f8f84fb2400000000000000000000000000000000000000000000000000000000815260040160405180910390fd5b8015610c79576000846001600160a01b0316639ded06df60e01b8484604051602401610b91929190611c26565b60408051601f198184030181529181526020820180517bffffffffffffffffffffffffffffffffffffffffffffffffffffffff167fffffffff00000000000000000000000000000000000000000000000000000000909416939093179092529051610bfc9190611c42565b600060405180830381855af49150503d8060008114610c37576040519150601f19603f3d011682016040523d82523d6000602084013e610c3c565b606091505b5050905080610c77576040517f97905dfb00000000000000000000000000000000000000000000000000000000815260040160405180910390fd5b505b6040516001600160a01b038516907fbc7cd75a20ee27fd9adebab32041f755214dbc6bffa90cc0225b39da2e5c2d3b90600090a25050507f360894a13ba1a3210667c828492db98dca3e2076cc3735a920a3ca505d382bbc55565b610ce96001600160a01b0384163330856110eb565b604080516001600160a01b03808616825260208201859052831691810191909152849086907f2275e75614080f9782f72563c2c1688c901c5339c7f9f436d323f9386fed700a9060600161081a565b34610d565760405163b5c74a2760e01b815260040160405180910390fd5b8585604051610d66929190611a2f565b60405180910390208b6001600160a01b03167f999d431b58761213cf53af96262b67a069cbd963499fd8effd1e21556217b8418c8c8c8c8a8a8a348b6040516107a599989796959493929190611bbf565b34610dd55760405163b5c74a2760e01b815260040160405180910390fd5b604080513481526001600160a01b0383166020820152839185917ffeb6b00343feee0f29a1a4345f8bf93ca1c73ee922248a4237a4e50d6447604e91016108e1565b610e2c6001600160a01b0384163330856110eb565b8686604051610e3c929190611a2f565b60405180910390208c6001600160a01b03167f8875f9764f28fa82d3e7ff1b80bd5c8f665e1f42fcd8c2faebc7c400a4ba1bbd8d8d8d8d8b8b8b8b8b60405161071099989796959493929190611b36565b33610eb67f02016836a56b71f0d02689e69e326f4f4c1b9057164ef592671cf0d37c8040c05490565b6001600160a01b031614610edd576040516330cd747160e01b815260040160405180910390fd5b6001600160a01b038116610f1d576040517f49e27cff00000000000000000000000000000000000000000000000000000000815260040160405180910390fd5b6040516001600160a01b038216907f04dba622d284ed0014ee4b9a6a68386be1a4c08a4913ae272de89199cc68616390600090a27f02016836a56b71f0d02689e69e326f4f4c1b9057164ef592671cf0d37c8040c055565b610f8a6001600160a01b0384163330856110eb565b8484604051610f9a929190611a2f565b60405180910390208a6001600160a01b03167f99206760f0be19dd093729bd35e5924daff5e217bcedc5223ed067b60008cf8a8b8b8b8b898989604051610fe79796959493929190611c5e565b60405180910390a350505050505050505050565b600080600080600085876108fcf1905080610944576040517ff4b3b1bc00000000000000000000000000000000000000000000000000000000815260040160405180910390fd5b6040516001600160a01b0383166024820152604481018290526109449084907fa9059cbb00000000000000000000000000000000000000000000000000000000906064015b60408051601f198184030181529190526020810180517bffffffffffffffffffffffffffffffffffffffffffffffffffffffff167fffffffff00000000000000000000000000000000000000000000000000000000909316929092179091526111ef565b6040516001600160a01b038085166024830152831660448201526064810182905261113c9085907f23b872dd0000000000000000000000000000000000000000000000000000000090608401611087565b50505050565b6001600160a01b0383166111695760405163e6c4247b60e01b815260040160405180910390fd5b6001600160a01b03821661118f5761118a6001600160a01b03841682610ffb565b6111a3565b6111a36001600160a01b0383168483611042565b604080516001600160a01b03808616825284166020820152908101829052849086907fd5df103822011013c8c940930e5180419111c65abadd6525ca7e740d56b4703f9060600161081a565b600080836001600160a01b03168360405161120a9190611c42565b6000604051808303816000865af19150503d8060008114611247576040519150601f19603f3d011682016040523d82523d6000602084013e61124c565b606091505b509150915060008280156112785750815115806112785750818060200190518101906112789190611cb2565b905080158061128f57506001600160a01b0385163b155b1561087e576040517f045c4b0200000000000000000000000000000000000000000000000000000000815260040160405180910390fd5b6001600160a01b03811681146112db57600080fd5b50565b80356112e9816112c6565b919050565b60008083601f84011261130057600080fd5b50813567ffffffffffffffff81111561131857600080fd5b60208301915083602082850101111561133057600080fd5b9250929050565b60008060008060008060008060a0898b03121561135357600080fd5b883561135e816112c6565b9750602089013567ffffffffffffffff8082111561137b57600080fd5b6113878c838d016112ee565b909950975060408b01359150808211156113a057600080fd5b6113ac8c838d016112ee565b909750955060608b01359150808211156113c557600080fd5b506113d28b828c016112ee565b90945092505060808901356113e6816112c6565b809150509295985092959890939650565b60008083601f84011261140957600080fd5b50813567ffffffffffffffff81111561142157600080fd5b6020830191508360208260051b850101111561133057600080fd5b60008060008060006060868803121561145457600080fd5b853561145f816112c6565b9450602086013567ffffffffffffffff8082111561147c57600080fd5b61148889838a016113f7565b909650945060408801359150808211156114a157600080fd5b506114ae888289016113f7565b969995985093965092949392505050565b634e487b7160e01b600052604160045260246000fd5b600082601f8301126114e657600080fd5b813567ffffffffffffffff80821115611501576115016114bf565b604051601f8301601f19908116603f01168101908282118183101715611529576115296114bf565b8160405283815286602085880101111561154257600080fd5b836020870160208301376000602085830101528094505050505092915050565b6000806000806000806000806000806000806101208d8f03121561158557600080fd5b61158e8d6112de565b9b5067ffffffffffffffff60208e013511156115a957600080fd5b6115b98e60208f01358f016112ee565b909b50995067ffffffffffffffff60408e013511156115d757600080fd5b6115e78e60408f01358f016112ee565b909950975067ffffffffffffffff60608e0135111561160557600080fd5b6116158e60608f01358f016112ee565b909750955067ffffffffffffffff60808e0135111561163357600080fd5b6116438e60808f01358f016114d5565b945060a08d0135935061165860c08e016112de565b925060e08d0135915061166e6101008e016112de565b90509295989b509295989b509295989b565b600080600080600080600080600080600060e08c8e0312156116a157600080fd5b6116aa8c6112de565b9a5067ffffffffffffffff8060208e013511156116c657600080fd5b6116d68e60208f01358f016112ee565b909b50995060408d01358110156116ec57600080fd5b6116fc8e60408f01358f016112ee565b909950975060608d013581101561171257600080fd5b6117228e60608f01358f016112ee565b909750955060808d013581101561173857600080fd5b506117498d60808e01358e016112ee565b909450925060a08c0135915061176160c08d016112de565b90509295989b509295989b9093969950565b600080600080600060a0868803121561178b57600080fd5b853594506020860135935060408601356117a4816112c6565b92506060860135915060808601356117bb816112c6565b809150509295509295909350565b600080600080600060a086880312156117e157600080fd5b853594506020860135935060408601356117fa816112c6565b9250606086013561180a816112c6565b949793965091946080013592915050565b60008060006060848603121561183057600080fd5b83359250602084013591506040840135611849816112c6565b809150509250925092565b60008060006060848603121561186957600080fd5b8335611874816112c6565b92506020840135611884816112c6565b929592945050506040919091013590565b600080602083850312156118a857600080fd5b823567ffffffffffffffff8111156118bf57600080fd5b6118cb858286016112ee565b90969095509350505050565b600080600080606085870312156118ed57600080fd5b84356118f8816112c6565b935060208501359250604085013567ffffffffffffffff81111561191b57600080fd5b611927878288016112ee565b95989497509550505050565b60006020828403121561194557600080fd5b8135611950816112c6565b9392505050565b60008060008060008060008060008060e08b8d03121561197657600080fd5b8a35611981816112c6565b995060208b013567ffffffffffffffff8082111561199e57600080fd5b6119aa8e838f016112ee565b909b50995060408d01359150808211156119c357600080fd5b6119cf8e838f016112ee565b909950975060608d01359150808211156119e857600080fd5b506119f58d828e016112ee565b90965094505060808b0135611a09816112c6565b925060a08b01359150611a1e60c08c016112de565b90509295989b9194979a5092959850565b8183823760009101908152919050565b81835281816020850137506000828201602090810191909152601f909101601f19169091010190565b608081526000611a7c60808301888a611a3f565b8281036020840152611a8f818789611a3f565b9150508360408301526001600160a01b0383166060830152979650505050505050565b634e487b7160e01b600052603260045260246000fd5b600060208284031215611ada57600080fd5b5051919050565b6000600019821415611b0357634e487b7160e01b600052601160045260246000fd5b5060010190565b60005b83811015611b25578181015183820152602001611b0d565b8381111561113c5750506000910152565b60e081526000611b4a60e083018b8d611a3f565b8281036020840152611b5d818a8c611a3f565b905082810360408401528751808252611b7d816020840160208c01611b0a565b60608401979097526001600160a01b03958616608084015260a083019490945250921660c0909201919091526020601f909201601f1916010195945050505050565b60c081526000611bd360c083018b8d611a3f565b8281036020840152611be6818a8c611a3f565b90508281036040840152611bfb81888a611a3f565b6060840196909652505060808101929092526001600160a01b031660a0909101529695505050505050565b602081526000611c3a602083018486611a3f565b949350505050565b60008251611c54818460208701611b0a565b9190910192915050565b60a081526000611c7260a08301898b611a3f565b8281036020840152611c8581888a611a3f565b6001600160a01b039687166040850152606084019590955250509216608090920191909152949350505050565b600060208284031215611cc457600080fd5b8151801515811461195057600080fdfea26469706673582212202db06ab9c78187cdc76b3ef44558d508d6d69d9268d3a762ee35a918ac4096a364736f6c63430008090033",
  "linkReferences": {},
  "deployedLinkReferences": {}
}