{
  "_format": "hh-sol-artifact-1",
  "contractName": "AxelarDepositService",
  "sourceName": "contracts/deposit-service/AxelarDepositService.sol",
  "abi": [
    {
      "inputs": [
        {
          "internalType": "address",
          "name": "gateway_",
          "type": "address"
        },
        {
          "internalType": "string",
          "name": "wrappedSymbol_",
          "type": "string"
        },
        {
          "internalType": "address",
          "name": "refundIssuer_",
          "type": "address"
        }
      ],
      "stateMutability": "nonpayable",
      "type": "constructor"
    },
    {
      "inputs": [],
      "name": "InvalidAddress",
      "type": "error"
    },
    {
      "inputs": [],
      "name": "InvalidAmount",
      "type": "error"
    },
    {
      "inputs": [],
      "name": "InvalidCodeHash",
      "type": "error"
    },
    {
      "inputs": [],
      "name": "InvalidImplementation",
      "type": "error"
    },
    {
      "inputs": [],
      "name": "InvalidOwner",
      "type": "error"
    },
    {
      "inputs": [],
      "name": "InvalidStringLength",
      "type": "error"
    },
    {
      "inputs": [],
      "name": "InvalidSymbol",
      "type": "error"
    },
    {
      "inputs": [],
      "name": "NativeTransferFailed",
      "type": "error"
    },
    {
      "inputs": [],
      "name": "NotOwner",
      "type": "error"
    },
    {
      "inputs": [],
      "name": "NotProxy",
      "type": "error"
    },
    {
      "inputs": [],
      "name": "NotRefundIssuer",
      "type": "error"
    },
    {
      "inputs": [],
      "name": "NothingDeposited",
      "type": "error"
    },
    {
      "inputs": [],
      "name": "SetupFailed",
      "type": "error"
    },
    {
      "inputs": [],
      "name": "TokenApproveFailed",
      "type": "error"
    },
    {
      "inputs": [],
      "name": "TokenTransferFailed",
      "type": "error"
    },
    {
      "inputs": [],
      "name": "UnwrapFailed",
      "type": "error"
    },
    {
      "inputs": [],
      "name": "WrapFailed",
      "type": "error"
    },
    {
      "inputs": [],
      "name": "WrappedTokenNotSupported",
      "type": "error"
    },
    {
      "anonymous": false,
      "inputs": [
        {
          "indexed": true,
          "internalType": "address",
          "name": "newOwner",
          "type": "address"
        }
      ],
      "name": "OwnershipTransferred",
      "type": "event"
    },
    {
      "anonymous": false,
      "inputs": [
        {
          "indexed": true,
          "internalType": "address",
          "name": "newImplementation",
          "type": "address"
        }
      ],
      "name": "Upgraded",
      "type": "event"
    },
    {
      "inputs": [
        {
          "internalType": "bytes32",
          "name": "salt",
          "type": "bytes32"
        },
        {
          "internalType": "address",
          "name": "refundAddress",
          "type": "address"
        },
        {
          "internalType": "string",
          "name": "destinationChain",
          "type": "string"
        },
        {
          "internalType": "string",
          "name": "destinationAddress",
          "type": "string"
        }
      ],
      "name": "addressForNativeDeposit",
      "outputs": [
        {
          "internalType": "address",
          "name": "",
          "type": "address"
        }
      ],
      "stateMutability": "view",
      "type": "function"
    },
    {
      "inputs": [
        {
          "internalType": "bytes32",
          "name": "salt",
          "type": "bytes32"
        },
        {
          "internalType": "address",
          "name": "refundAddress",
          "type": "address"
        },
        {
          "internalType": "address",
          "name": "recipient",
          "type": "address"
        }
      ],
      "name": "addressForNativeUnwrap",
      "outputs": [
        {
          "internalType": "address",
          "name": "",
          "type": "address"
        }
      ],
      "stateMutability": "view",
      "type": "function"
    },
    {
      "inputs": [
        {
          "internalType": "bytes32",
          "name": "salt",
          "type": "bytes32"
        },
        {
          "internalType": "address",
          "name": "refundAddress",
          "type": "address"
        },
        {
          "internalType": "string",
          "name": "destinationChain",
          "type": "string"
        },
        {
          "internalType": "string",
          "name": "destinationAddress",
          "type": "string"
        },
        {
          "internalType": "string",
          "name": "tokenSymbol",
          "type": "string"
        }
      ],
      "name": "addressForTokenDeposit",
      "outputs": [
        {
          "internalType": "address",
          "name": "",
          "type": "address"
        }
      ],
      "stateMutability": "view",
      "type": "function"
    },
    {
      "inputs": [],
      "name": "contractId",
      "outputs": [
        {
          "internalType": "bytes32",
          "name": "",
          "type": "bytes32"
        }
      ],
      "stateMutability": "pure",
      "type": "function"
    },
    {
      "inputs": [],
      "name": "gateway",
      "outputs": [
        {
          "internalType": "address",
          "name": "",
          "type": "address"
        }
      ],
      "stateMutability": "view",
      "type": "function"
    },
    {
      "inputs": [],
      "name": "implementation",
      "outputs": [
        {
          "internalType": "address",
          "name": "implementation_",
          "type": "address"
        }
      ],
      "stateMutability": "view",
      "type": "function"
    },
    {
      "inputs": [
        {
          "internalType": "bytes32",
          "name": "salt",
          "type": "bytes32"
        },
        {
          "internalType": "address",
          "name": "refundAddress",
          "type": "address"
        },
        {
          "internalType": "address payable",
          "name": "recipient",
          "type": "address"
        }
      ],
      "name": "nativeUnwrap",
      "outputs": [],
      "stateMutability": "nonpayable",
      "type": "function"
    },
    {
      "inputs": [],
      "name": "owner",
      "outputs": [
        {
          "internalType": "address",
          "name": "owner_",
          "type": "address"
        }
      ],
      "stateMutability": "view",
      "type": "function"
    },
    {
      "inputs": [],
      "name": "receiverImplementation",
      "outputs": [
        {
          "internalType": "address",
          "name": "",
          "type": "address"
        }
      ],
      "stateMutability": "view",
      "type": "function"
    },
    {
      "inputs": [],
      "name": "refundIssuer",
      "outputs": [
        {
          "internalType": "address",
          "name": "",
          "type": "address"
        }
      ],
      "stateMutability": "view",
      "type": "function"
    },
    {
      "inputs": [
        {
          "internalType": "address",
          "name": "receiver",
          "type": "address"
        },
        {
          "internalType": "address",
          "name": "token",
          "type": "address"
        },
        {
          "internalType": "uint256",
          "name": "amount",
          "type": "uint256"
        }
      ],
      "name": "refundLockedAsset",
      "outputs": [],
      "stateMutability": "nonpayable",
      "type": "function"
    },
    {
      "inputs": [
        {
          "internalType": "bytes32",
          "name": "salt",
          "type": "bytes32"
        },
        {
          "internalType": "address",
          "name": "refundAddress",
          "type": "address"
        },
        {
          "internalType": "string",
          "name": "destinationChain",
          "type": "string"
        },
        {
          "internalType": "string",
          "name": "destinationAddress",
          "type": "string"
        },
        {
          "internalType": "address[]",
          "name": "refundTokens",
          "type": "address[]"
        }
      ],
      "name": "refundNativeDeposit",
      "outputs": [],
      "stateMutability": "nonpayable",
      "type": "function"
    },
    {
      "inputs": [
        {
          "internalType": "bytes32",
          "name": "salt",
          "type": "bytes32"
        },
        {
          "internalType": "address",
          "name": "refundAddress",
          "type": "address"
        },
        {
          "internalType": "address payable",
          "name": "recipient",
          "type": "address"
        },
        {
          "internalType": "address[]",
          "name": "refundTokens",
          "type": "address[]"
        }
      ],
      "name": "refundNativeUnwrap",
      "outputs": [],
      "stateMutability": "nonpayable",
      "type": "function"
    },
    {
      "inputs": [],
      "name": "refundToken",
      "outputs": [
        {
          "internalType": "address",
          "name": "",
          "type": "address"
        }
      ],
      "stateMutability": "view",
      "type": "function"
    },
    {
      "inputs": [
        {
          "internalType": "bytes32",
          "name": "salt",
          "type": "bytes32"
        },
        {
          "internalType": "address",
          "name": "refundAddress",
          "type": "address"
        },
        {
          "internalType": "string",
          "name": "destinationChain",
          "type": "string"
        },
        {
          "internalType": "string",
          "name": "destinationAddress",
          "type": "string"
        },
        {
          "internalType": "string",
          "name": "tokenSymbol",
          "type": "string"
        },
        {
          "internalType": "address[]",
          "name": "refundTokens",
          "type": "address[]"
        }
      ],
      "name": "refundTokenDeposit",
      "outputs": [],
      "stateMutability": "nonpayable",
      "type": "function"
    },
    {
      "inputs": [
        {
          "internalType": "string",
          "name": "destinationChain",
          "type": "string"
        },
        {
          "internalType": "string",
          "name": "destinationAddress",
          "type": "string"
        }
      ],
      "name": "sendNative",
      "outputs": [],
      "stateMutability": "payable",
      "type": "function"
    },
    {
      "inputs": [
        {
          "internalType": "bytes32",
          "name": "salt",
          "type": "bytes32"
        },
        {
          "internalType": "address",
          "name": "refundAddress",
          "type": "address"
        },
        {
          "internalType": "string",
          "name": "destinationChain",
          "type": "string"
        },
        {
          "internalType": "string",
          "name": "destinationAddress",
          "type": "string"
        }
      ],
      "name": "sendNativeDeposit",
      "outputs": [],
      "stateMutability": "nonpayable",
      "type": "function"
    },
    {
      "inputs": [
        {
          "internalType": "bytes32",
          "name": "salt",
          "type": "bytes32"
        },
        {
          "internalType": "address",
          "name": "refundAddress",
          "type": "address"
        },
        {
          "internalType": "string",
          "name": "destinationChain",
          "type": "string"
        },
        {
          "internalType": "string",
          "name": "destinationAddress",
          "type": "string"
        },
        {
          "internalType": "string",
          "name": "tokenSymbol",
          "type": "string"
        }
      ],
      "name": "sendTokenDeposit",
      "outputs": [],
      "stateMutability": "nonpayable",
      "type": "function"
    },
    {
      "inputs": [
        {
          "internalType": "bytes",
          "name": "data",
          "type": "bytes"
        }
      ],
      "name": "setup",
      "outputs": [],
      "stateMutability": "nonpayable",
      "type": "function"
    },
    {
      "inputs": [
        {
          "internalType": "address",
          "name": "newOwner",
          "type": "address"
        }
      ],
      "name": "transferOwnership",
      "outputs": [],
      "stateMutability": "nonpayable",
      "type": "function"
    },
    {
      "inputs": [
        {
          "internalType": "address",
          "name": "newImplementation",
          "type": "address"
        },
        {
          "internalType": "bytes32",
          "name": "newImplementationCodeHash",
          "type": "bytes32"
        },
        {
          "internalType": "bytes",
          "name": "params",
          "type": "bytes"
        }
      ],
      "name": "upgrade",
      "outputs": [],
      "stateMutability": "nonpayable",
      "type": "function"
    },
    {
      "inputs": [],
      "name": "wrappedSymbol",
      "outputs": [
        {
          "internalType": "string",
          "name": "",
          "type": "string"
        }
      ],
      "stateMutability": "view",
      "type": "function"
    },
    {
      "inputs": [],
      "name": "wrappedToken",
      "outputs": [
        {
          "internalType": "address",
          "name": "",
          "type": "address"
        }
      ],
      "stateMutability": "view",
      "type": "function"
    },
    {
      "inputs": [],
      "name": "wrappedTokenAddress",
      "outputs": [
        {
          "internalType": "address",
          "name": "",
          "type": "address"
        }
      ],
      "stateMutability": "view",
      "type": "function"
    }
  ],
  "bytecode": "0x6101206040523480156200001257600080fd5b5060405162003e5e38038062003e5e8339810160408190526200003591620002b9565b82826001600160a01b0382166200005f5760405163e6c4247b60e01b815260040160405180910390fd5b80516001600160a01b0383166080521515806200007e57600062000100565b6040516349ad89fb60e11b81526001600160a01b0384169063935b13f690620000ac908590600401620003c7565b60206040518083038186803b158015620000c557600080fd5b505afa158015620000da573d6000803e3d6000fd5b505050506040513d601f19601f82011682018060405250810190620001009190620003e3565b6001600160a01b031660a052806200011a57600062000130565b6200013082620001f560201b6200161e1760201c565b60c0528080156200014a575060a0516001600160a01b0316155b15620001695760405163010466f160e21b815260040160405180910390fd5b5050506001600160a01b038116620001945760405163e6c4247b60e01b815260040160405180910390fd5b6001600160a01b0381166101005260405183908390620001b49062000245565b620001c192919062000401565b604051809103906000f080158015620001de573d6000803e3d6000fd5b506001600160a01b031660e0525062000457915050565b8051600090829015806200020a5750601f8151115b156200022957604051638dc6ac0160e01b815260040160405180910390fd5b600062000236826200042f565b915160ff169091179392505050565b6114ce806200299083390190565b80516001600160a01b03811681146200026b57600080fd5b919050565b634e487b7160e01b600052604160045260246000fd5b60005b83811015620002a357818101518382015260200162000289565b83811115620002b3576000848401525b50505050565b600080600060608486031215620002cf57600080fd5b620002da8462000253565b60208501519093506001600160401b0380821115620002f857600080fd5b818601915086601f8301126200030d57600080fd5b81518181111562000322576200032262000270565b604051601f8201601f19908116603f011681019083821181831017156200034d576200034d62000270565b816040528281528960208487010111156200036757600080fd5b6200037a83602083016020880162000286565b8096505050505050620003906040850162000253565b90509250925092565b60008151808452620003b381602086016020860162000286565b601f01601f19169290920160200192915050565b602081526000620003dc602083018462000399565b9392505050565b600060208284031215620003f657600080fd5b620003dc8262000253565b6001600160a01b0383168152604060208201819052600090620004279083018462000399565b949350505050565b8051602080830151919081101562000451576000198160200360031b1b821691505b50919050565b60805160a05160c05160e051610100516124bc620004d4600039600081816102d50152610bdb015260006101c40152600081816105bd015261088f01526000818161030b0152818161049c015281816106dd015261091e01526000818161023c015281816107b80152818161084e0152610d1e01526124bc6000f3fe608060405260043610620001ab5760003560e01c80635cb732be11620000e7578063a3499c731162000089578063f2fde38b1162000060578063f2fde38b1462000555578063fc13a8b1146200057a578063fee8cf4e146200059f57600080fd5b8063a3499c7314620004e6578063b357691e146200050b578063cf85fb53146200053057600080fd5b806393e4845b11620000be57806393e4845b1462000467578063996c6cc3146200048c5780639ded06df14620004c157600080fd5b80635cb732be14620003d25780638291286c14620003f45780638da5cb5b146200043157600080fd5b806338f047fa1162000151578063439dff061162000128578063439dff06146200035257806351adb38314620003775780635c60da1b146200039c57600080fd5b806338f047fa14620002c15780633e64620814620002f75780633f99819a146200032d57600080fd5b806313e46f72116200018657806313e46f72146200025e57806315c4be96146200028357806319030c47146200029c57600080fd5b8063112e335c14620001b0578063115079db1462000203578063116191b61462000228575b600080fd5b348015620001bd57600080fd5b50620001e67f000000000000000000000000000000000000000000000000000000000000000081565b6040516001600160a01b0390911681526020015b60405180910390f35b3480156200021057600080fd5b50620001e66200022236600462001989565b620005f9565b3480156200023557600080fd5b50620001e67f000000000000000000000000000000000000000000000000000000000000000081565b3480156200026b57600080fd5b50620001e66200027d36600462001a1e565b62000667565b6200029a6200029436600462001ae0565b620006db565b005b348015620002a957600080fd5b506200029a620002bb36600462001b9b565b6200091c565b348015620002ce57600080fd5b50620001e67f000000000000000000000000000000000000000000000000000000000000000081565b3480156200030457600080fd5b50620001e67f000000000000000000000000000000000000000000000000000000000000000081565b3480156200033a57600080fd5b506200029a6200034c36600462001a1e565b62000aa8565b3480156200035f57600080fd5b506200029a6200037136600462001c16565b62000b3f565b3480156200038457600080fd5b506200029a6200039636600462001c5d565b62000bd0565b348015620003a957600080fd5b507f360894a13ba1a3210667c828492db98dca3e2076cc3735a920a3ca505d382bbc54620001e6565b348015620003df57600080fd5b50600054620001e6906001600160a01b031681565b3480156200040157600080fd5b506040517fb8e1544725348a2fe538aa3da850e3b074cd75bac06629b2beb717eaee8dd7078152602001620001fa565b3480156200043e57600080fd5b507f02016836a56b71f0d02689e69e326f4f4c1b9057164ef592671cf0d37c8040c054620001e6565b3480156200047457600080fd5b506200029a6200048636600462001ca3565b62000ceb565b3480156200049957600080fd5b507f0000000000000000000000000000000000000000000000000000000000000000620001e6565b348015620004ce57600080fd5b506200029a620004e036600462001d93565b62000f4f565b348015620004f357600080fd5b506200029a6200050536600462001dd9565b62000fc0565b3480156200051857600080fd5b506200029a6200052a36600462001e2f565b620012c3565b3480156200053d57600080fd5b506200029a6200054f36600462001989565b6200143c565b3480156200056257600080fd5b506200029a6200057436600462001edd565b620014cf565b3480156200058757600080fd5b50620001e66200059936600462001c16565b620015ba565b348015620005ac57600080fd5b50620005ea604080518082019091527f000000000000000000000000000000000000000000000000000000000000000060ff81168252602082015290565b604051620001fa919062001f65565b60006200065c8763a97a8d1660e01b88888888886040516024016200062395949392919062001fa3565b60408051601f198184030181529190526020810180516001600160e01b03166001600160e01b0319909316929092179091528862001687565b979650505050505050565b6000620006ce8963b28f104b60e01b8a8a8a8a8a8a8a60405160240162000695979695949392919062001fe9565b60408051601f198184030181529190526020810180516001600160e01b03166001600160e01b0319909316929092179091528a62001687565b9998505050505050505050565b7f0000000000000000000000000000000000000000000000000000000000000000348062000735576040517f69b95dc900000000000000000000000000000000000000000000000000000000815260040160405180910390fd5b816001600160a01b031663d0e30db0826040518263ffffffff1660e01b81526004016000604051808303818588803b1580156200077157600080fd5b505af115801562000786573d6000803e3d6000fd5b50506040517f095ea7b30000000000000000000000000000000000000000000000000000000081526001600160a01b037f000000000000000000000000000000000000000000000000000000000000000081166004830152602482018690528616935063095ea7b392506044019050602060405180830381600087803b1580156200081057600080fd5b505af115801562000825573d6000803e3d6000fd5b505050506040513d601f19601f820116820180604052508101906200084b919062002048565b507f00000000000000000000000000000000000000000000000000000000000000006001600160a01b03166326ef699d87878787620008bc604080518082019091527f000000000000000000000000000000000000000000000000000000000000000060ff81168252602082015290565b876040518763ffffffff1660e01b8152600401620008e0969594939291906200206c565b600060405180830381600087803b158015620008fb57600080fd5b505af115801562000910573d6000803e3d6000fd5b50505050505050505050565b7f00000000000000000000000000000000000000000000000000000000000000008160005b8181101562000a8e57826001600160a01b0316858583818110620009695762000969620020c1565b905060200201602081019062000980919062001edd565b6001600160a01b0316148015620009a05750336001600160a01b03881614155b15620009ac5762000a7b565b848482818110620009c157620009c1620020c1565b9050602002016020810190620009d8919062001edd565b600080546001600160a01b039283166001600160a01b031990911617905560408051898316602482015291881660448084019190915281518084039091018152606490920181526020820180516001600160e01b0316632233341160e21b17905251899190899062000a4a9062001904565b62000a57929190620020d7565b8190604051809103906000f590508015801562000a78573d6000803e3d6000fd5b50505b62000a868162002104565b905062000941565b5050600080546001600160a01b0319169055505050505050565b8763b28f104b60e01b8888888888888860405160240162000ad0979695949392919062001fe9565b60408051601f198184030181529181526020820180516001600160e01b03166001600160e01b0319909416939093179092529051899062000b119062001904565b62000b1e929190620020d7565b8190604051809103906000f590508015801562000910573d6000803e3d6000fd5b604080516001600160a01b038481166024830152831660448083019190915282518083039091018152606490910182526020810180516001600160e01b0316632233341160e21b1790529051849190849062000b9b9062001904565b62000ba8929190620020d7565b8190604051809103906000f590508015801562000bc9573d6000803e3d6000fd5b5050505050565b336001600160a01b037f0000000000000000000000000000000000000000000000000000000000000000161462000c33576040517f3d25ebf600000000000000000000000000000000000000000000000000000000815260040160405180910390fd5b6001600160a01b03831662000c74576040517fe6c4247b00000000000000000000000000000000000000000000000000000000815260040160405180910390fd5b8062000cac576040517f2c5211c600000000000000000000000000000000000000000000000000000000815260040160405180910390fd5b6001600160a01b03821662000cd55762000cd06001600160a01b0384168262001778565b505050565b62000cd06001600160a01b0383168483620017c0565b6040517f935b13f60000000000000000000000000000000000000000000000000000000081526000906001600160a01b037f0000000000000000000000000000000000000000000000000000000000000000169063935b13f69062000d5790889088906004016200212e565b60206040518083038186803b15801562000d7057600080fd5b505afa15801562000d85573d6000803e3d6000fd5b505050506040513d601f19601f8201168201806040525081019062000dab919062002144565b90508160005b8181101562000f3057826001600160a01b031685858381811062000dd95762000dd9620020c1565b905060200201602081019062000df0919062001edd565b6001600160a01b031614801562000e105750336001600160a01b038d1614155b1562000e1c5762000f1d565b84848281811062000e315762000e31620020c1565b905060200201602081019062000e48919062001edd565b600080546001600160a01b0319166001600160a01b03929092169190911790556040518d907fb28f104b000000000000000000000000000000000000000000000000000000009062000eab908f908f908f908f908f908f908f9060240162001fe9565b60408051601f198184030181529181526020820180516001600160e01b03166001600160e01b03199094169390931790925290518e9062000eec9062001904565b62000ef9929190620020d7565b8190604051809103906000f590508015801562000f1a573d6000803e3d6000fd5b50505b62000f288162002104565b905062000db1565b5050600080546001600160a01b03191690555050505050505050505050565b600062000f7a7f360894a13ba1a3210667c828492db98dca3e2076cc3735a920a3ca505d382bbc5490565b6001600160a01b0316141562000fbc576040517fbf10dd3a00000000000000000000000000000000000000000000000000000000815260040160405180910390fd5b5050565b3362000fea7f02016836a56b71f0d02689e69e326f4f4c1b9057164ef592671cf0d37c8040c05490565b6001600160a01b03161462001012576040516330cd747160e01b815260040160405180910390fd5b306001600160a01b0316638291286c6040518163ffffffff1660e01b815260040160206040518083038186803b1580156200104c57600080fd5b505afa15801562001061573d6000803e3d6000fd5b505050506040513d601f19601f8201168201806040525081019062001087919062002164565b846001600160a01b0316638291286c6040518163ffffffff1660e01b815260040160206040518083038186803b158015620010c157600080fd5b505afa158015620010d6573d6000803e3d6000fd5b505050506040513d601f19601f82011682018060405250810190620010fc919062002164565b1462001134576040517f68155f9a00000000000000000000000000000000000000000000000000000000815260040160405180910390fd5b836001600160a01b03163f831462001178576040517f8f84fb2400000000000000000000000000000000000000000000000000000000815260040160405180910390fd5b801562001268576000846001600160a01b0316639ded06df60e01b8484604051602401620011a89291906200212e565b60408051601f198184030181529181526020820180516001600160e01b03166001600160e01b0319909416939093179092529051620011e891906200217e565b600060405180830381855af49150503d806000811462001225576040519150601f19603f3d011682016040523d82523d6000602084013e6200122a565b606091505b505090508062001266576040517f97905dfb00000000000000000000000000000000000000000000000000000000815260040160405180910390fd5b505b6040516001600160a01b038516907fbc7cd75a20ee27fd9adebab32041f755214dbc6bffa90cc0225b39da2e5c2d3b90600090a25050507f360894a13ba1a3210667c828492db98dca3e2076cc3735a920a3ca505d382bbc55565b6000620012d5898989898989620005f9565b6001600160a01b031631118015620012f65750336001600160a01b03881614155b15620013025762001432565b8060005b818110156200141f57838382818110620013245762001324620020c1565b90506020020160208101906200133b919062001edd565b600080546001600160a01b0319166001600160a01b03929092169190911790556040518a907fa97a8d1600000000000000000000000000000000000000000000000000000000906200139a908c908c908c908c908c9060240162001fa3565b60408051601f198184030181529181526020820180516001600160e01b03166001600160e01b03199094169390931790925290518b90620013db9062001904565b620013e8929190620020d7565b8190604051809103906000f590508015801562001409573d6000803e3d6000fd5b505080620014179062002104565b905062001306565b5050600080546001600160a01b03191690555b5050505050505050565b8563a97a8d1660e01b86868686866040516024016200146095949392919062001fa3565b60408051601f198184030181529181526020820180516001600160e01b03166001600160e01b03199094169390931790925290518790620014a19062001904565b620014ae929190620020d7565b8190604051809103906000f590508015801562001432573d6000803e3d6000fd5b33620014f97f02016836a56b71f0d02689e69e326f4f4c1b9057164ef592671cf0d37c8040c05490565b6001600160a01b03161462001521576040516330cd747160e01b815260040160405180910390fd5b6001600160a01b03811662001562576040517f49e27cff00000000000000000000000000000000000000000000000000000000815260040160405180910390fd5b6040516001600160a01b038216907f04dba622d284ed0014ee4b9a6a68386be1a4c08a4913ae272de89199cc68616390600090a27f02016836a56b71f0d02689e69e326f4f4c1b9057164ef592671cf0d37c8040c055565b604080516001600160a01b03848116602483015283166044808301919091528251808303909101815260649091019091526020810180516001600160e01b0316632233341160e21b179052600090620016169085908562001687565b949350505050565b805160009082901580620016335750601f8151115b156200166b576040517f8dc6ac0100000000000000000000000000000000000000000000000000000000815260040160405180910390fd5b600062001678826200219c565b915160ff169091179392505050565b60003084604051806020016200169d9062001904565b601f1982820381018352601f909101166040819052620016c49087908790602001620020d7565b60408051601f1981840301815290829052620016e49291602001620021c4565b6040516020818303038152906040528051906020012060405160200162001758939291907fff00000000000000000000000000000000000000000000000000000000000000815260609390931b6bffffffffffffffffffffffff191660018401526015830191909152603582015260550190565b60408051601f198184030181529190528051602090910120949350505050565b600080600080600085876108fcf190508062000cd0576040517ff4b3b1bc00000000000000000000000000000000000000000000000000000000815260040160405180910390fd5b604080516001600160a01b038481166024830152604480830185905283518084039091018152606490920183526020820180516001600160e01b03167fa9059cbb00000000000000000000000000000000000000000000000000000000179052915162000cd092869291600091829190851690620018409085906200217e565b6000604051808303816000865af19150503d80600081146200187f576040519150601f19603f3d011682016040523d82523d6000602084013e62001884565b606091505b50915091506000828015620018b4575081511580620018b4575081806020019051810190620018b4919062002048565b9050801580620018cc57506001600160a01b0385163b155b1562000bc9576040517f045c4b0200000000000000000000000000000000000000000000000000000000815260040160405180910390fd5b61028f80620021f883390190565b6001600160a01b03811681146200192857600080fd5b50565b8035620019388162001912565b919050565b60008083601f8401126200195057600080fd5b50813567ffffffffffffffff8111156200196957600080fd5b6020830191508360208285010111156200198257600080fd5b9250929050565b60008060008060008060808789031215620019a357600080fd5b863595506020870135620019b78162001912565b9450604087013567ffffffffffffffff80821115620019d557600080fd5b620019e38a838b016200193d565b90965094506060890135915080821115620019fd57600080fd5b5062001a0c89828a016200193d565b979a9699509497509295939492505050565b60008060008060008060008060a0898b03121562001a3b57600080fd5b88359750602089013562001a4f8162001912565b9650604089013567ffffffffffffffff8082111562001a6d57600080fd5b62001a7b8c838d016200193d565b909850965060608b013591508082111562001a9557600080fd5b62001aa38c838d016200193d565b909650945060808b013591508082111562001abd57600080fd5b5062001acc8b828c016200193d565b999c989b5096995094979396929594505050565b6000806000806040858703121562001af757600080fd5b843567ffffffffffffffff8082111562001b1057600080fd5b62001b1e888389016200193d565b9096509450602087013591508082111562001b3857600080fd5b5062001b47878288016200193d565b95989497509550505050565b60008083601f84011262001b6657600080fd5b50813567ffffffffffffffff81111562001b7f57600080fd5b6020830191508360208260051b85010111156200198257600080fd5b60008060008060006080868803121562001bb457600080fd5b85359450602086013562001bc88162001912565b9350604086013562001bda8162001912565b9250606086013567ffffffffffffffff81111562001bf757600080fd5b62001c058882890162001b53565b969995985093965092949392505050565b60008060006060848603121562001c2c57600080fd5b83359250602084013562001c408162001912565b9150604084013562001c528162001912565b809150509250925092565b60008060006060848603121562001c7357600080fd5b833562001c808162001912565b9250602084013562001c928162001912565b929592945050506040919091013590565b60008060008060008060008060008060c08b8d03121562001cc357600080fd5b8a35995062001cd560208c016200192b565b985060408b013567ffffffffffffffff8082111562001cf357600080fd5b62001d018e838f016200193d565b909a50985060608d013591508082111562001d1b57600080fd5b62001d298e838f016200193d565b909850965060808d013591508082111562001d4357600080fd5b62001d518e838f016200193d565b909650945060a08d013591508082111562001d6b57600080fd5b5062001d7a8d828e0162001b53565b915080935050809150509295989b9194979a5092959850565b6000806020838503121562001da757600080fd5b823567ffffffffffffffff81111562001dbf57600080fd5b62001dcd858286016200193d565b90969095509350505050565b6000806000806060858703121562001df057600080fd5b843562001dfd8162001912565b935060208501359250604085013567ffffffffffffffff81111562001e2157600080fd5b62001b47878288016200193d565b60008060008060008060008060a0898b03121562001e4c57600080fd5b88359750602089013562001e608162001912565b9650604089013567ffffffffffffffff8082111562001e7e57600080fd5b62001e8c8c838d016200193d565b909850965060608b013591508082111562001ea657600080fd5b62001eb48c838d016200193d565b909650945060808b013591508082111562001ece57600080fd5b5062001acc8b828c0162001b53565b60006020828403121562001ef057600080fd5b813562001efd8162001912565b9392505050565b60005b8381101562001f2157818101518382015260200162001f07565b8381111562001f31576000848401525b50505050565b6000815180845262001f5181602086016020860162001f04565b601f01601f19169290920160200192915050565b60208152600062001efd602083018462001f37565b81835281816020850137506000828201602090810191909152601f909101601f19169091010190565b6001600160a01b038616815260606020820152600062001fc860608301868862001f7a565b828103604084015262001fdd81858762001f7a565b98975050505050505050565b6001600160a01b03881681526080602082015260006200200e60808301888a62001f7a565b82810360408401526200202381878962001f7a565b905082810360608401526200203a81858762001f7a565b9a9950505050505050505050565b6000602082840312156200205b57600080fd5b8151801515811462001efd57600080fd5b6080815260006200208260808301888a62001f7a565b82810360208401526200209781878962001f7a565b90508281036040840152620020ad818662001f37565b915050826060830152979650505050505050565b634e487b7160e01b600052603260045260246000fd5b604081526000620020ec604083018562001f37565b90506001600160a01b03831660208301529392505050565b60006000198214156200212757634e487b7160e01b600052601160045260246000fd5b5060010190565b6020815260006200161660208301848662001f7a565b6000602082840312156200215757600080fd5b815162001efd8162001912565b6000602082840312156200217757600080fd5b5051919050565b600082516200219281846020870162001f04565b9190910192915050565b80516020808301519190811015620021be576000198160200360031b1b821691505b50919050565b60008351620021d881846020880162001f04565b835190830190620021ee81836020880162001f04565b0194935050505056fe608060405234801561001057600080fd5b5060405161028f38038061028f83398101604081905261002f91610191565b6000336001600160a01b031663112e335c6040518163ffffffff1660e01b8152600401602060405180830381600087803b15801561006c57600080fd5b505af1158015610080573d6000803e3d6000fd5b505050506040513d601f19601f820116820180604052508101906100a49190610250565b6001600160a01b0316836040516100bb9190610272565b600060405180830381855af49150503d80600081146100f6576040519150601f19603f3d011682016040523d82523d6000602084013e6100fb565b606091505b5050905080610111576040513d806000833e8082fd5b6001600160a01b038216610123573391505b816001600160a01b0316ff5b634e487b7160e01b600052604160045260246000fd5b60005b83811015610160578181015183820152602001610148565b8381111561016f576000848401525b50505050565b80516001600160a01b038116811461018c57600080fd5b919050565b600080604083850312156101a457600080fd5b82516001600160401b03808211156101bb57600080fd5b818501915085601f8301126101cf57600080fd5b8151818111156101e1576101e161012f565b604051601f8201601f19908116603f011681019083821181831017156102095761020961012f565b8160405282815288602084870101111561022257600080fd5b610233836020830160208801610145565b809650505050505061024760208401610175565b90509250929050565b60006020828403121561026257600080fd5b61026b82610175565b9392505050565b60008251610284818460208701610145565b919091019291505056fea2646970667358221220f979e4a8336c0669851e182002a835569738102a23dd6231fabf3b0683e7930664736f6c6343000809003360e06040523480156200001157600080fd5b50604051620014ce380380620014ce833981016040819052620000349162000229565b81816001600160a01b0382166200005e5760405163e6c4247b60e01b815260040160405180910390fd5b80516001600160a01b0383166080521515806200007d576000620000ff565b6040516349ad89fb60e11b81526001600160a01b0384169063935b13f690620000ab908590600401620002f7565b60206040518083038186803b158015620000c457600080fd5b505afa158015620000d9573d6000803e3d6000fd5b505050506040513d601f19601f82011682018060405250810190620000ff91906200032c565b6001600160a01b031660a05280620001195760006200012f565b6200012f826200017360201b62000aee1760201c565b60c05280801562000149575060a0516001600160a01b0316155b15620001685760405163010466f160e21b815260040160405180910390fd5b505050505062000379565b805160009082901580620001885750601f8151115b15620001a757604051638dc6ac0160e01b815260040160405180910390fd5b6000620001b48262000351565b915160ff169091179392505050565b80516001600160a01b0381168114620001db57600080fd5b919050565b634e487b7160e01b600052604160045260246000fd5b60005b8381101562000213578181015183820152602001620001f9565b8381111562000223576000848401525b50505050565b600080604083850312156200023d57600080fd5b6200024883620001c3565b60208401519092506001600160401b03808211156200026657600080fd5b818501915085601f8301126200027b57600080fd5b815181811115620002905762000290620001e0565b604051601f8201601f19908116603f01168101908382118183101715620002bb57620002bb620001e0565b81604052828152886020848701011115620002d557600080fd5b620002e8836020830160208801620001f6565b80955050505050509250929050565b602081526000825180602084015262000318816040850160208701620001f6565b601f01601f19169190910160400192915050565b6000602082840312156200033f57600080fd5b6200034a82620001c3565b9392505050565b8051602080830151919081101562000373576000198160200360031b1b821691505b50919050565b60805160a05160c0516110e8620003e66000396000818161015d01526106a901526000818160cb015281816101040152818161019b015261050a0152600081816087015281816105d70152818161066901528181610767015281816109b20152610a6e01526110e86000f3fe608060405234801561001057600080fd5b506004361061007d5760003560e01c8063996c6cc31161005b578063996c6cc314610102578063a97a8d1614610128578063b28f104b1461013b578063fee8cf4e1461014e57600080fd5b8063116191b6146100825780633e646208146100c657806388ccd044146100ed575b600080fd5b6100a97f000000000000000000000000000000000000000000000000000000000000000081565b6040516001600160a01b0390911681526020015b60405180910390f35b6100a97f000000000000000000000000000000000000000000000000000000000000000081565b6101006100fb366004610d0e565b610197565b005b7f00000000000000000000000000000000000000000000000000000000000000006100a9565b610100610136366004610d90565b610438565b610100610149366004610e13565b610734565b61018a604080518082019091527f000000000000000000000000000000000000000000000000000000000000000060ff81168252602082015290565b6040516100bd9190610f18565b60007f000000000000000000000000000000000000000000000000000000000000000090506000336001600160a01b0316635cb732be6040518163ffffffff1660e01b8152600401602060405180830381600087803b1580156101f957600080fd5b505af115801561020d573d6000803e3d6000fd5b505050506040513d601f19601f820116820180604052508101906102319190610f32565b90506001600160a01b038116156102e9576001600160a01b038416610254573393505b6040516370a0823160e01b81523060048201526102e39085906001600160a01b038416906370a08231906024015b60206040518083038186803b15801561029a57600080fd5b505afa1580156102ae573d6000803e3d6000fd5b505050506040513d601f19601f820116820180604052508101906102d29190610f4f565b6001600160a01b0384169190610b53565b50505050565b6040516370a0823160e01b81523060048201526000906001600160a01b038416906370a082319060240160206040518083038186803b15801561032b57600080fd5b505afa15801561033f573d6000803e3d6000fd5b505050506040513d601f19601f820116820180604052508101906103639190610f4f565b90506001600160a01b03831661038c576040516313ee304560e31b815260040160405180910390fd5b806103aa576040516369b95dc960e01b815260040160405180910390fd5b6040517f2e1a7d4d000000000000000000000000000000000000000000000000000000008152600481018290526001600160a01b03841690632e1a7d4d90602401600060405180830381600087803b15801561040557600080fd5b505af1158015610419573d6000803e3d6000fd5b50610431925050506001600160a01b03851682610bd8565b5050505050565b6000336001600160a01b0316635cb732be6040518163ffffffff1660e01b8152600401602060405180830381600087803b15801561047557600080fd5b505af1158015610489573d6000803e3d6000fd5b505050506040513d601f19601f820116820180604052508101906104ad9190610f32565b90506001600160a01b03811615610508576001600160a01b0386166104d0573395505b6040516370a0823160e01b81523060048201526105029087906001600160a01b038416906370a0823190602401610282565b50610431565b7f0000000000000000000000000000000000000000000000000000000000000000476001600160a01b038216610551576040516313ee304560e31b815260040160405180910390fd5b8061056f576040516369b95dc960e01b815260040160405180910390fd5b816001600160a01b031663d0e30db0826040518263ffffffff1660e01b81526004016000604051808303818588803b1580156105aa57600080fd5b505af11580156105be573d6000803e3d6000fd5b505060405163095ea7b360e01b81526001600160a01b037f000000000000000000000000000000000000000000000000000000000000000081166004830152602482018690528616935063095ea7b392506044019050602060405180830381600087803b15801561062e57600080fd5b505af1158015610642573d6000803e3d6000fd5b505050506040513d601f19601f820116820180604052508101906106669190610f68565b507f00000000000000000000000000000000000000000000000000000000000000006001600160a01b03166326ef699d888888886106d6604080518082019091527f000000000000000000000000000000000000000000000000000000000000000060ff81168252602082015290565b876040518763ffffffff1660e01b81526004016106f896959493929190610fb3565b600060405180830381600087803b15801561071257600080fd5b505af1158015610726573d6000803e3d6000fd5b505050505050505050505050565b6040517f935b13f60000000000000000000000000000000000000000000000000000000081526000906001600160a01b037f0000000000000000000000000000000000000000000000000000000000000000169063935b13f69061079e9086908690600401611002565b60206040518083038186803b1580156107b657600080fd5b505afa1580156107ca573d6000803e3d6000fd5b505050506040513d601f19601f820116820180604052508101906107ee9190610f32565b90506000336001600160a01b0316635cb732be6040518163ffffffff1660e01b8152600401602060405180830381600087803b15801561082d57600080fd5b505af1158015610841573d6000803e3d6000fd5b505050506040513d601f19601f820116820180604052508101906108659190610f32565b90506001600160a01b038116156108c1576001600160a01b038916610888573398505b6040516370a0823160e01b81523060048201526108ba908a906001600160a01b038416906370a0823190602401610282565b5050610ae5565b6040516370a0823160e01b81523060048201526000906001600160a01b038416906370a082319060240160206040518083038186803b15801561090357600080fd5b505afa158015610917573d6000803e3d6000fd5b505050506040513d601f19601f8201168201806040525081019061093b9190610f4f565b90506001600160a01b03831661097d576040517f04119bc400000000000000000000000000000000000000000000000000000000815260040160405180910390fd5b8061099b576040516369b95dc960e01b815260040160405180910390fd5b60405163095ea7b360e01b81526001600160a01b037f0000000000000000000000000000000000000000000000000000000000000000811660048301526024820183905284169063095ea7b390604401602060405180830381600087803b158015610a0557600080fd5b505af1158015610a19573d6000803e3d6000fd5b505050506040513d601f19601f82011682018060405250810190610a3d9190610f68565b506040517f26ef699d0000000000000000000000000000000000000000000000000000000081526001600160a01b037f000000000000000000000000000000000000000000000000000000000000000016906326ef699d90610aaf908c908c908c908c908c908c908a9060040161101e565b600060405180830381600087803b158015610ac957600080fd5b505af1158015610add573d6000803e3d6000fd5b505050505050505b50505050505050565b805160009082901580610b025750601f8151115b15610b39576040517f8dc6ac0100000000000000000000000000000000000000000000000000000000815260040160405180910390fd5b6000610b448261106f565b915160ff169091179392505050565b604080516001600160a01b038416602482015260448082018490528251808303909101815260649091019091526020810180517bffffffffffffffffffffffffffffffffffffffffffffffffffffffff167fa9059cbb00000000000000000000000000000000000000000000000000000000179052610bd3908490610c1f565b505050565b600080600080600085876108fcf1905080610bd3576040517ff4b3b1bc00000000000000000000000000000000000000000000000000000000815260040160405180910390fd5b600080836001600160a01b031683604051610c3a9190611096565b6000604051808303816000865af19150503d8060008114610c77576040519150601f19603f3d011682016040523d82523d6000602084013e610c7c565b606091505b50915091506000828015610ca8575081511580610ca8575081806020019051810190610ca89190610f68565b9050801580610cbf57506001600160a01b0385163b155b15610431576040517f045c4b0200000000000000000000000000000000000000000000000000000000815260040160405180910390fd5b6001600160a01b0381168114610d0b57600080fd5b50565b60008060408385031215610d2157600080fd5b8235610d2c81610cf6565b91506020830135610d3c81610cf6565b809150509250929050565b60008083601f840112610d5957600080fd5b50813567ffffffffffffffff811115610d7157600080fd5b602083019150836020828501011115610d8957600080fd5b9250929050565b600080600080600060608688031215610da857600080fd5b8535610db381610cf6565b9450602086013567ffffffffffffffff80821115610dd057600080fd5b610ddc89838a01610d47565b90965094506040880135915080821115610df557600080fd5b50610e0288828901610d47565b969995985093965092949392505050565b60008060008060008060006080888a031215610e2e57600080fd5b8735610e3981610cf6565b9650602088013567ffffffffffffffff80821115610e5657600080fd5b610e628b838c01610d47565b909850965060408a0135915080821115610e7b57600080fd5b610e878b838c01610d47565b909650945060608a0135915080821115610ea057600080fd5b50610ead8a828b01610d47565b989b979a50959850939692959293505050565b60005b83811015610edb578181015183820152602001610ec3565b838111156102e35750506000910152565b60008151808452610f04816020860160208601610ec0565b601f01601f19169290920160200192915050565b602081526000610f2b6020830184610eec565b9392505050565b600060208284031215610f4457600080fd5b8151610f2b81610cf6565b600060208284031215610f6157600080fd5b5051919050565b600060208284031215610f7a57600080fd5b81518015158114610f2b57600080fd5b81835281816020850137506000828201602090810191909152601f909101601f19169091010190565b608081526000610fc760808301888a610f8a565b8281036020840152610fda818789610f8a565b90508281036040840152610fee8186610eec565b915050826060830152979650505050505050565b602081526000611016602083018486610f8a565b949350505050565b60808152600061103260808301898b610f8a565b828103602084015261104581888a610f8a565b9050828103604084015261105a818688610f8a565b91505082606083015298975050505050505050565b80516020808301519190811015611090576000198160200360031b1b821691505b50919050565b600082516110a8818460208701610ec0565b919091019291505056fea26469706673582212207e13b092b1c3f94e83265d2cb10e4b6bed37644754d140a638ce2ce9eef9a3f564736f6c63430008090033",
  "linkReferences": {},
  "deployedLinkReferences": {}
}