{
  "_format": "hh-sol-artifact-1",
  "contractName": "ExpressServiceProxy",
  "sourceName": "contracts/express/ExpressServiceProxy.sol",
  "abi": [
    {
      "inputs": [
        {
          "internalType": "address",
          "name": "implementationAddress",
          "type": "address"
        },
        {
          "internalType": "address",
          "name": "owner",
          "type": "address"
        },
        {
          "internalType": "bytes",
          "name": "setupParams",
          "type": "bytes"
        }
      ],
      "stateMutability": "nonpayable",
      "type": "constructor"
    },
    {
      "inputs": [],
      "name": "AlreadyDeployed",
      "type": "error"
    },
    {
      "inputs": [],
      "name": "AlreadyInitialized",
      "type": "error"
    },
    {
      "inputs": [],
      "name": "DeployFailed",
      "type": "error"
    },
    {
      "inputs": [],
      "name": "EmptyBytecode",
      "type": "error"
    },
    {
      "inputs": [],
      "name": "InvalidImplementation",
      "type": "error"
    },
    {
      "inputs": [],
      "name": "InvalidOwner",
      "type": "error"
    },
    {
      "inputs": [],
      "name": "NotOwner",
      "type": "error"
    },
    {
      "inputs": [],
      "name": "SetupFailed",
      "type": "error"
    },
    {
      "stateMutability": "payable",
      "type": "fallback"
    },
    {
      "inputs": [
        {
          "internalType": "bytes",
          "name": "bytecode",
          "type": "bytes"
        },
        {
          "internalType": "bytes",
          "name": "setupParams",
          "type": "bytes"
        }
      ],
      "name": "finalUpgrade",
      "outputs": [
        {
          "internalType": "address",
          "name": "finalImplementation_",
          "type": "address"
        }
      ],
      "stateMutability": "nonpayable",
      "type": "function"
    },
    {
      "inputs": [],
      "name": "implementation",
      "outputs": [
        {
          "internalType": "address",
          "name": "implementation_",
          "type": "address"
        }
      ],
      "stateMutability": "view",
      "type": "function"
    },
    {
      "inputs": [],
      "name": "isFinal",
      "outputs": [
        {
          "internalType": "bool",
          "name": "",
          "type": "bool"
        }
      ],
      "stateMutability": "view",
      "type": "function"
    },
    {
      "inputs": [
        {
          "internalType": "bytes",
          "name": "setupParams",
          "type": "bytes"
        }
      ],
      "name": "setup",
      "outputs": [],
      "stateMutability": "nonpayable",
      "type": "function"
    },
    {
      "stateMutability": "payable",
      "type": "receive"
    }
  ],
  "bytecode": "0x60806040523480156200001157600080fd5b5060405162000e6a38038062000e6a8339810160408190526200003491620002ac565b8282828282826001600160a01b03821662000062576040516349e27cff60e01b815260040160405180910390fd5b7f200c4c5552f72d4d51415e28a00b0348dd63be39568103d654810d1af3c992ad80846001600160a01b0316638291286c6040518163ffffffff1660e01b815260040160206040518083038186803b158015620000be57600080fd5b505afa158015620000d3573d6000803e3d6000fd5b505050506040513d601f19601f82011682018060405250810190620000f991906200038c565b14620001185760405163340aafcd60e11b815260040160405180910390fd5b837f360894a13ba1a3210667c828492db98dca3e2076cc3735a920a3ca505d382bbc55827f02016836a56b71f0d02689e69e326f4f4c1b9057164ef592671cf0d37c8040c055815160001462000236576000846001600160a01b0316639ded06df60e01b846040516024016200018f9190620003a6565b60408051601f198184030181529181526020820180516001600160e01b03166001600160e01b0319909416939093179092529051620001cf9190620003db565b600060405180830381855af49150503d80600081146200020c576040519150601f19603f3d011682016040523d82523d6000602084013e62000211565b606091505b505090508062000234576040516397905dfb60e01b815260040160405180910390fd5b505b50505050505050505050620003f9565b80516001600160a01b03811681146200025e57600080fd5b919050565b634e487b7160e01b600052604160045260246000fd5b60005b83811015620002965781810151838201526020016200027c565b83811115620002a6576000848401525b50505050565b600080600060608486031215620002c257600080fd5b620002cd8462000246565b9250620002dd6020850162000246565b60408501519092506001600160401b0380821115620002fb57600080fd5b818601915086601f8301126200031057600080fd5b81518181111562000325576200032562000263565b604051601f8201601f19908116603f0116810190838211818310171562000350576200035062000263565b816040528281528960208487010111156200036a57600080fd5b6200037d83602083016020880162000279565b80955050505050509250925092565b6000602082840312156200039f57600080fd5b5051919050565b6020815260008251806020840152620003c781604085016020870162000279565b601f01601f19169190910160400192915050565b60008251620003ef81846020870162000279565b9190910192915050565b610a6180620004096000396000f3fe6080604052600436106100435760003560e01c80635c60da1b1461007a5780638b4de469146100ac5780639ded06df146100cc578063f3418781146100ed5761004a565b3661004a57005b6000610054610112565b90503660008037600080366000845af43d6000803e808015610075573d6000f35b3d6000fd5b34801561008657600080fd5b5061008f610112565b6040516001600160a01b0390911681526020015b60405180910390f35b3480156100b857600080fd5b5061008f6100c73660046106cc565b610153565b3480156100d857600080fd5b506100eb6100e73660046107a7565b5050565b005b3480156100f957600080fd5b50610102610303565b60405190151581526020016100a3565b600061011c61031e565b90506001600160a01b03811661015057507f360894a13ba1a3210667c828492db98dca3e2076cc3735a920a3ca505d382bbc545b90565b7f02016836a56b71f0d02689e69e326f4f4c1b9057164ef592671cf0d37c8040c054600090336001600160a01b038216146101ba576040517f30cd747100000000000000000000000000000000000000000000000000000000815260040160405180910390fd5b6101e47f80df4dfef2d6527a47431f6f203697684e26d83f81418443821420778d4c4e8d86610361565b915082156102fb576000826001600160a01b0316639ded06df60e01b86866040516024016102139291906107e9565b60408051601f198184030181529181526020820180517bffffffffffffffffffffffffffffffffffffffffffffffffffffffff167fffffffff0000000000000000000000000000000000000000000000000000000090941693909317909252905161027e9190610848565b600060405180830381855af49150503d80600081146102b9576040519150601f19603f3d011682016040523d82523d6000602084013e6102be565b606091505b50509050806102f9576040517f97905dfb00000000000000000000000000000000000000000000000000000000815260040160405180910390fd5b505b509392505050565b60008061030e61031e565b6001600160a01b03161415905090565b600061034a7f80df4dfef2d6527a47431f6f203697684e26d83f81418443821420778d4c4e8d306104de565b90506001600160a01b0381163b6101505750600090565b600061036d83306104de565b9050610381816001600160a01b0316610604565b156103b8576040517fa6ef0ba100000000000000000000000000000000000000000000000000000000815260040160405180910390fd5b81516103f0576040517f21744a5900000000000000000000000000000000000000000000000000000000815260040160405180910390fd5b6000836040516103ff90610647565b8190604051809103906000f590508015801561041f573d6000803e3d6000fd5b5090506001600160a01b038116610462576040517fb4f5411100000000000000000000000000000000000000000000000000000000815260040160405180910390fd5b6040517e7743600000000000000000000000000000000000000000000000000000000081526001600160a01b0382169062774360906104a5908690600401610864565b600060405180830381600087803b1580156104bf57600080fd5b505af11580156104d3573d6000803e3d6000fd5b505050505092915050565b6000808284604051806020016104f390610647565b6020820181038252601f19601f820116604052508051906020012060405160200161056b939291907fff00000000000000000000000000000000000000000000000000000000000000815260609390931b6bffffffffffffffffffffffff191660018401526015830191909152603582015260550190565b60408051601f1981840301815282825280516020918201207fd6940000000000000000000000000000000000000000000000000000000000008285015260601b6bffffffffffffffffffffffff191660228401527f010000000000000000000000000000000000000000000000000000000000000060368401528151601781850301815260379093019091528151910120949350505050565b60006001600160a01b0382163f801580159061064057507fc5d2460186f7233c927e7db2dcc703c0e500b653ca82273b7bfad8045d85a4708114155b9392505050565b6101948061089883390190565b7f4e487b7100000000000000000000000000000000000000000000000000000000600052604160045260246000fd5b60008083601f84011261069557600080fd5b50813567ffffffffffffffff8111156106ad57600080fd5b6020830191508360208285010111156106c557600080fd5b9250929050565b6000806000604084860312156106e157600080fd5b833567ffffffffffffffff808211156106f957600080fd5b818601915086601f83011261070d57600080fd5b81358181111561071f5761071f610654565b604051601f8201601f19908116603f0116810190838211818310171561074757610747610654565b8160405282815289602084870101111561076057600080fd5b82602086016020830137600060208483010152809750505050602086013591508082111561078d57600080fd5b5061079a86828701610683565b9497909650939450505050565b600080602083850312156107ba57600080fd5b823567ffffffffffffffff8111156107d157600080fd5b6107dd85828601610683565b90969095509350505050565b60208152816020820152818360408301376000818301604090810191909152601f909201601f19160101919050565b60005b8381101561083357818101518382015260200161081b565b83811115610842576000848401525b50505050565b6000825161085a818460208701610818565b9190910192915050565b6020815260008251806020840152610883816040850160208701610818565b601f01601f1916919091016040019291505056fe608060405234801561001057600080fd5b50610174806100206000396000f3fe608060405234801561001057600080fd5b506004361061002a5760003560e01c80627743601461002f575b600080fd5b61004261003d36600461008d565b610044565b005b60008151602083016000f090508061005b57600080fd5b33ff5b7f4e487b7100000000000000000000000000000000000000000000000000000000600052604160045260246000fd5b60006020828403121561009f57600080fd5b813567ffffffffffffffff808211156100b757600080fd5b818401915084601f8301126100cb57600080fd5b8135818111156100dd576100dd61005e565b604051601f8201601f19908116603f011681019083821181831017156101055761010561005e565b8160405282815287602084870101111561011e57600080fd5b82602086016020830137600092810160200192909252509594505050505056fea26469706673582212205ef4d245ae3624f49b82910c0b88de017c7f563767862ac8c45f18ba03af28d364736f6c63430008090033a2646970667358221220ba3e0cfc5f2a3672711460670929aeb828ed0b8488ab37fec8ae295dcedca55864736f6c63430008090033",
  "linkReferences": {},
  "deployedLinkReferences": {}
}