{
  "_format": "hh-sol-artifact-1",
  "contractName": "ExpressService",
  "sourceName": "contracts/express/ExpressService.sol",
  "abi": [
    {
      "inputs": [
        {
          "internalType": "address",
          "name": "gateway_",
          "type": "address"
        },
        {
          "internalType": "address",
          "name": "proxyDeployer_",
          "type": "address"
        },
        {
          "internalType": "address",
          "name": "expressOperator_",
          "type": "address"
        }
      ],
      "stateMutability": "nonpayable",
      "type": "constructor"
    },
    {
      "inputs": [],
      "name": "InvalidAddress",
      "type": "error"
    },
    {
      "inputs": [],
      "name": "InvalidCodeHash",
      "type": "error"
    },
    {
      "inputs": [],
      "name": "InvalidContractAddress",
      "type": "error"
    },
    {
      "inputs": [],
      "name": "InvalidImplementation",
      "type": "error"
    },
    {
      "inputs": [],
      "name": "InvalidOperator",
      "type": "error"
    },
    {
      "inputs": [],
      "name": "InvalidOwner",
      "type": "error"
    },
    {
      "inputs": [],
      "name": "InvalidTokenSymbol",
      "type": "error"
    },
    {
      "inputs": [],
      "name": "NativeTransferFailed",
      "type": "error"
    },
    {
      "inputs": [],
      "name": "NotApprovedByGateway",
      "type": "error"
    },
    {
      "inputs": [],
      "name": "NotExpressProxy",
      "type": "error"
    },
    {
      "inputs": [],
      "name": "NotOperator",
      "type": "error"
    },
    {
      "inputs": [],
      "name": "NotOwner",
      "type": "error"
    },
    {
      "inputs": [],
      "name": "NotProxy",
      "type": "error"
    },
    {
      "inputs": [],
      "name": "SetupFailed",
      "type": "error"
    },
    {
      "inputs": [],
      "name": "TokenTransferFailed",
      "type": "error"
    },
    {
      "anonymous": false,
      "inputs": [
        {
          "indexed": true,
          "internalType": "address",
          "name": "newOwner",
          "type": "address"
        }
      ],
      "name": "OwnershipTransferStarted",
      "type": "event"
    },
    {
      "anonymous": false,
      "inputs": [
        {
          "indexed": true,
          "internalType": "address",
          "name": "newOwner",
          "type": "address"
        }
      ],
      "name": "OwnershipTransferred",
      "type": "event"
    },
    {
      "anonymous": false,
      "inputs": [
        {
          "indexed": true,
          "internalType": "address",
          "name": "newImplementation",
          "type": "address"
        }
      ],
      "name": "Upgraded",
      "type": "event"
    },
    {
      "inputs": [],
      "name": "acceptOwnership",
      "outputs": [],
      "stateMutability": "nonpayable",
      "type": "function"
    },
    {
      "inputs": [
        {
          "internalType": "bytes32",
          "name": "commandId",
          "type": "bytes32"
        },
        {
          "internalType": "string",
          "name": "sourceChain",
          "type": "string"
        },
        {
          "internalType": "string",
          "name": "sourceAddress",
          "type": "string"
        },
        {
          "internalType": "address",
          "name": "contractAddress",
          "type": "address"
        },
        {
          "internalType": "bytes",
          "name": "payload",
          "type": "bytes"
        },
        {
          "internalType": "string",
          "name": "tokenSymbol",
          "type": "string"
        },
        {
          "internalType": "uint256",
          "name": "amount",
          "type": "uint256"
        }
      ],
      "name": "callWithToken",
      "outputs": [],
      "stateMutability": "nonpayable",
      "type": "function"
    },
    {
      "inputs": [],
      "name": "contractId",
      "outputs": [
        {
          "internalType": "bytes32",
          "name": "",
          "type": "bytes32"
        }
      ],
      "stateMutability": "pure",
      "type": "function"
    },
    {
      "inputs": [
        {
          "internalType": "bytes32",
          "name": "salt",
          "type": "bytes32"
        },
        {
          "internalType": "address",
          "name": "implementationAddress",
          "type": "address"
        },
        {
          "internalType": "address",
          "name": "owner",
          "type": "address"
        },
        {
          "internalType": "bytes",
          "name": "setupParams",
          "type": "bytes"
        }
      ],
      "name": "deployExpressProxy",
      "outputs": [
        {
          "internalType": "address",
          "name": "deployedAddress",
          "type": "address"
        }
      ],
      "stateMutability": "nonpayable",
      "type": "function"
    },
    {
      "inputs": [
        {
          "internalType": "bytes32",
          "name": "salt",
          "type": "bytes32"
        },
        {
          "internalType": "address",
          "name": "sender",
          "type": "address"
        }
      ],
      "name": "deployedProxyAddress",
      "outputs": [
        {
          "internalType": "address",
          "name": "",
          "type": "address"
        }
      ],
      "stateMutability": "view",
      "type": "function"
    },
    {
      "inputs": [
        {
          "internalType": "bytes32",
          "name": "commandId",
          "type": "bytes32"
        },
        {
          "internalType": "string",
          "name": "sourceChain",
          "type": "string"
        },
        {
          "internalType": "string",
          "name": "sourceAddress",
          "type": "string"
        },
        {
          "internalType": "bytes",
          "name": "payload",
          "type": "bytes"
        }
      ],
      "name": "execute",
      "outputs": [],
      "stateMutability": "nonpayable",
      "type": "function"
    },
    {
      "inputs": [
        {
          "internalType": "bytes32",
          "name": "commandId",
          "type": "bytes32"
        },
        {
          "internalType": "string",
          "name": "sourceChain",
          "type": "string"
        },
        {
          "internalType": "string",
          "name": "sourceAddress",
          "type": "string"
        },
        {
          "internalType": "bytes",
          "name": "payload",
          "type": "bytes"
        },
        {
          "internalType": "string",
          "name": "tokenSymbol",
          "type": "string"
        },
        {
          "internalType": "uint256",
          "name": "amount",
          "type": "uint256"
        }
      ],
      "name": "executeWithToken",
      "outputs": [],
      "stateMutability": "nonpayable",
      "type": "function"
    },
    {
      "inputs": [],
      "name": "expressOperator",
      "outputs": [
        {
          "internalType": "address",
          "name": "",
          "type": "address"
        }
      ],
      "stateMutability": "view",
      "type": "function"
    },
    {
      "inputs": [],
      "name": "gateway",
      "outputs": [
        {
          "internalType": "contract IAxelarGateway",
          "name": "",
          "type": "address"
        }
      ],
      "stateMutability": "view",
      "type": "function"
    },
    {
      "inputs": [],
      "name": "implementation",
      "outputs": [
        {
          "internalType": "address",
          "name": "implementation_",
          "type": "address"
        }
      ],
      "stateMutability": "view",
      "type": "function"
    },
    {
      "inputs": [
        {
          "internalType": "address",
          "name": "proxyAddress",
          "type": "address"
        }
      ],
      "name": "isExpressProxy",
      "outputs": [
        {
          "internalType": "bool",
          "name": "",
          "type": "bool"
        }
      ],
      "stateMutability": "view",
      "type": "function"
    },
    {
      "inputs": [],
      "name": "owner",
      "outputs": [
        {
          "internalType": "address",
          "name": "owner_",
          "type": "address"
        }
      ],
      "stateMutability": "view",
      "type": "function"
    },
    {
      "inputs": [],
      "name": "pendingOwner",
      "outputs": [
        {
          "internalType": "address",
          "name": "owner_",
          "type": "address"
        }
      ],
      "stateMutability": "view",
      "type": "function"
    },
    {
      "inputs": [],
      "name": "proxyDeployer",
      "outputs": [
        {
          "internalType": "contract IExpressProxyDeployer",
          "name": "",
          "type": "address"
        }
      ],
      "stateMutability": "view",
      "type": "function"
    },
    {
      "inputs": [
        {
          "internalType": "bytes",
          "name": "data",
          "type": "bytes"
        }
      ],
      "name": "setup",
      "outputs": [],
      "stateMutability": "nonpayable",
      "type": "function"
    },
    {
      "inputs": [
        {
          "internalType": "address",
          "name": "newOwner",
          "type": "address"
        }
      ],
      "name": "transferOwnership",
      "outputs": [],
      "stateMutability": "nonpayable",
      "type": "function"
    },
    {
      "inputs": [
        {
          "internalType": "address",
          "name": "newImplementation",
          "type": "address"
        },
        {
          "internalType": "bytes32",
          "name": "newImplementationCodeHash",
          "type": "bytes32"
        },
        {
          "internalType": "bytes",
          "name": "params",
          "type": "bytes"
        }
      ],
      "name": "upgrade",
      "outputs": [],
      "stateMutability": "nonpayable",
      "type": "function"
    },
    {
      "inputs": [
        {
          "internalType": "address payable",
          "name": "receiver",
          "type": "address"
        },
        {
          "internalType": "address",
          "name": "token",
          "type": "address"
        },
        {
          "internalType": "uint256",
          "name": "amount",
          "type": "uint256"
        }
      ],
      "name": "withdraw",
      "outputs": [],
      "stateMutability": "nonpayable",
      "type": "function"
    }
  ],
  "bytecode": "0x6101006040523480156200001257600080fd5b5060405162001ca238038062001ca28339810160408190526200003591620000ee565b30608052826001600160a01b038116620000625760405163e6c4247b60e01b815260040160405180910390fd5b6001600160a01b0390811660a0528116620000905760405163ccea9e6f60e01b815260040160405180910390fd5b6001600160a01b038216620000b85760405163e6c4247b60e01b815260040160405180910390fd5b6001600160a01b0391821660c0521660e0525062000138565b80516001600160a01b0381168114620000e957600080fd5b919050565b6000806000606084860312156200010457600080fd5b6200010f84620000d1565b92506200011f60208501620000d1565b91506200012f60408501620000d1565b90509250925092565b60805160a05160c05160e051611af1620001b1600039600081816102b30152818161078101526110ba0152600081816101400152818161048701528181610bf4015261102c01526000818161018401528181610392015281816105d40152818161083801526109bf01526000610c810152611af16000f3fe608060405234801561001057600080fd5b50600436106101365760003560e01c80638da5cb5b116100b2578063a3499c7311610081578063d9caed1211610066578063d9caed12146102fb578063e30c39781461030e578063f2fde38b1461033557600080fd5b8063a3499c73146102d5578063d30784d1146102e857600080fd5b80638da5cb5b14610251578063918cae00146102785780639ded06df1461029b5780639f4321e2146102ae57600080fd5b8063491606581161010957806379ba5097116100ee57806379ba5097146102085780637e0afb9a146102105780638291286c1461022357600080fd5b806349160658146101ce5780635c60da1b146101e157600080fd5b80630a2882b81461013b578063116191b61461017f5780631a98b2e0146101a65780632b23b033146101bb575b600080fd5b6101627f000000000000000000000000000000000000000000000000000000000000000081565b6040516001600160a01b0390911681526020015b60405180910390f35b6101627f000000000000000000000000000000000000000000000000000000000000000081565b6101b96101b43660046113ea565b610348565b005b6101626101c93660046114ec565b610453565b6101b96101dc36600461155f565b61058a565b7f360894a13ba1a3210667c828492db98dca3e2076cc3735a920a3ca505d382bbc54610162565b6101b961068c565b6101b961021e366004611603565b610776565b6040517f200c4c5552f72d4d51415e28a00b0348dd63be39568103d654810d1af3c992ad8152602001610176565b7f02016836a56b71f0d02689e69e326f4f4c1b9057164ef592671cf0d37c8040c054610162565b61028b6102863660046116f2565b610bb9565b6040519015158152602001610176565b6101b96102a936600461170f565b610c76565b6101627f000000000000000000000000000000000000000000000000000000000000000081565b6101b96102e3366004611751565b610cdd565b6101626102f63660046117ad565b610fe4565b6101b96103093660046117dd565b6110af565b7f9855384122b55936fbfb8ca5120e63c6537a1ac40caf6ae33502b3c5da8c87d154610162565b6101b96103433660046116f2565b611172565b6000858560405161035a92919061181e565b6040519081900381207f1876eed900000000000000000000000000000000000000000000000000000000825291506001600160a01b037f00000000000000000000000000000000000000000000000000000000000000001690631876eed9906103d7908e908e908e908e908e9089908d908d908d90600401611857565b602060405180830381600087803b1580156103f157600080fd5b505af1158015610405573d6000803e3d6000fd5b505050506040513d601f19601f8201168201806040525081019061042991906118b6565b61044657604051631403112d60e21b815260040160405180910390fd5b5050505050505050505050565b60408051336020820152908101869052600090819060600160405160208183030381529060405280519060200120905060007f00000000000000000000000000000000000000000000000000000000000000006001600160a01b0316632b23b03360e01b83898989896040516024016104d09594939291906118d8565b60408051601f198184030181529181526020820180516001600160e01b03167fffffffff000000000000000000000000000000000000000000000000000000009094169390931790925290516105269190611916565b600060405180830381855af49150503d8060008114610561576040519150601f19603f3d011682016040523d82523d6000602084013e610566565b606091505b509150508080602001905181019061057e9190611951565b98975050505050505050565b6000828260405161059c92919061181e565b6040519081900381207f5f6970c300000000000000000000000000000000000000000000000000000000825291506001600160a01b037f00000000000000000000000000000000000000000000000000000000000000001690635f6970c390610613908b908b908b908b908b90899060040161196e565b602060405180830381600087803b15801561062d57600080fd5b505af1158015610641573d6000803e3d6000fd5b505050506040513d601f19601f8201168201806040525081019061066591906118b6565b61068257604051631403112d60e21b815260040160405180910390fd5b5050505050505050565b60006106b67f9855384122b55936fbfb8ca5120e63c6537a1ac40caf6ae33502b3c5da8c87d15490565b90506001600160a01b03811633146106fa576040517f49e27cff00000000000000000000000000000000000000000000000000000000815260040160405180910390fd5b6040516001600160a01b038216907f04dba622d284ed0014ee4b9a6a68386be1a4c08a4913ae272de89199cc68616390600090a260007f9855384122b55936fbfb8ca5120e63c6537a1ac40caf6ae33502b3c5da8c87d1557f02016836a56b71f0d02689e69e326f4f4c1b9057164ef592671cf0d37c8040c055565b336001600160a01b037f000000000000000000000000000000000000000000000000000000000000000016146107bf57604051631f0853c160e21b815260040160405180910390fd5b6001600160a01b0386166107ff576040517fa710429d00000000000000000000000000000000000000000000000000000000815260040160405180910390fd5b8a158015906108ba57506040517fd26ff210000000000000000000000000000000000000000000000000000000008152600481018c90527f00000000000000000000000000000000000000000000000000000000000000006001600160a01b03169063d26ff2109060240160206040518083038186803b15801561088257600080fd5b505afa158015610896573d6000803e3d6000fd5b505050506040513d601f19601f820116820180604052508101906108ba91906118b6565b1561094d576040517f1a98b2e00000000000000000000000000000000000000000000000000000000081526001600160a01b03871690631a98b2e090610916908e908e908e908e908e908d908d908d908d908d906004016119af565b600060405180830381600087803b15801561093057600080fd5b505af1158015610944573d6000803e3d6000fd5b50505050610446565b61095686610bb9565b61098c576040517fda4a667d00000000000000000000000000000000000000000000000000000000815260040160405180910390fd5b6040517f935b13f60000000000000000000000000000000000000000000000000000000081526000906001600160a01b037f0000000000000000000000000000000000000000000000000000000000000000169063935b13f6906109f69087908790600401611a1e565b60206040518083038186803b158015610a0e57600080fd5b505afa158015610a22573d6000803e3d6000fd5b505050506040513d601f19601f82011682018060405250810190610a469190611951565b90506001600160a01b038116610a88576040517f220839c900000000000000000000000000000000000000000000000000000000815260040160405180910390fd5b6040517f095ea7b30000000000000000000000000000000000000000000000000000000081526001600160a01b0388811660048301526024820184905282169063095ea7b390604401602060405180830381600087803b158015610aeb57600080fd5b505af1158015610aff573d6000803e3d6000fd5b505050506040513d601f19601f82011682018060405250810190610b2391906118b6565b506040517f911a4ac90000000000000000000000000000000000000000000000000000000081526001600160a01b0388169063911a4ac990610b79908e908e908e908e908d908d908d908d908d90600401611a3a565b600060405180830381600087803b158015610b9357600080fd5b505af1158015610ba7573d6000803e3d6000fd5b50505050505050505050505050505050565b6040517f918cae000000000000000000000000000000000000000000000000000000000081526001600160a01b0382811660048301526000917f00000000000000000000000000000000000000000000000000000000000000009091169063918cae009060240160206040518083038186803b158015610c3857600080fd5b505afa158015610c4c573d6000803e3d6000fd5b505050506040513d601f19601f82011682018060405250810190610c7091906118b6565b92915050565b306001600160a01b037f0000000000000000000000000000000000000000000000000000000000000000161415610cd9576040517fbf10dd3a00000000000000000000000000000000000000000000000000000000815260040160405180910390fd5b5050565b33610d067f02016836a56b71f0d02689e69e326f4f4c1b9057164ef592671cf0d37c8040c05490565b6001600160a01b031614610d2d576040516330cd747160e01b815260040160405180910390fd5b306001600160a01b0316638291286c6040518163ffffffff1660e01b815260040160206040518083038186803b158015610d6657600080fd5b505afa158015610d7a573d6000803e3d6000fd5b505050506040513d601f19601f82011682018060405250810190610d9e9190611aa2565b846001600160a01b0316638291286c6040518163ffffffff1660e01b815260040160206040518083038186803b158015610dd757600080fd5b505afa158015610deb573d6000803e3d6000fd5b505050506040513d601f19601f82011682018060405250810190610e0f9190611aa2565b14610e46576040517f68155f9a00000000000000000000000000000000000000000000000000000000815260040160405180910390fd5b836001600160a01b03163f8314610e89576040517f8f84fb2400000000000000000000000000000000000000000000000000000000815260040160405180910390fd5b8015610f89576000846001600160a01b0316639ded06df60e01b8484604051602401610eb6929190611a1e565b60408051601f198184030181529181526020820180516001600160e01b03167fffffffff00000000000000000000000000000000000000000000000000000000909416939093179092529051610f0c9190611916565b600060405180830381855af49150503d8060008114610f47576040519150601f19603f3d011682016040523d82523d6000602084013e610f4c565b606091505b5050905080610f87576040517f97905dfb00000000000000000000000000000000000000000000000000000000815260040160405180910390fd5b505b6040516001600160a01b038516907fbc7cd75a20ee27fd9adebab32041f755214dbc6bffa90cc0225b39da2e5c2d3b90600090a25050507f360894a13ba1a3210667c828492db98dca3e2076cc3735a920a3ca505d382bbc55565b6040517ff0c8c546000000000000000000000000000000000000000000000000000000008152600481018390526001600160a01b0382811660248301523060448301526000917f00000000000000000000000000000000000000000000000000000000000000009091169063f0c8c5469060640160206040518083038186803b15801561107057600080fd5b505afa158015611084573d6000803e3d6000fd5b505050506040513d601f19601f820116820180604052508101906110a89190611951565b9392505050565b336001600160a01b037f000000000000000000000000000000000000000000000000000000000000000016146110f857604051631f0853c160e21b815260040160405180910390fd5b6001600160a01b038316611138576040517fe6c4247b00000000000000000000000000000000000000000000000000000000815260040160405180910390fd5b6001600160a01b03821661115e576111596001600160a01b0384168261121a565b505050565b6111596001600160a01b0383168483611261565b3361119b7f02016836a56b71f0d02689e69e326f4f4c1b9057164ef592671cf0d37c8040c05490565b6001600160a01b0316146111c2576040516330cd747160e01b815260040160405180910390fd5b6040516001600160a01b038216907fd9be0e8e07417e00f2521db636cb53e316fd288f5051f16d2aa2bf0c3938a87690600090a27f9855384122b55936fbfb8ca5120e63c6537a1ac40caf6ae33502b3c5da8c87d155565b600080600080600085876108fcf1905080611159576040517ff4b3b1bc00000000000000000000000000000000000000000000000000000000815260040160405180910390fd5b604080516001600160a01b038481166024830152604480830185905283518084039091018152606490920183526020820180516001600160e01b03167fa9059cbb000000000000000000000000000000000000000000000000000000001790529151611159928692916000918291908516906112de908590611916565b6000604051808303816000865af19150503d806000811461131b576040519150601f19603f3d011682016040523d82523d6000602084013e611320565b606091505b5091509150600082801561134c57508151158061134c57508180602001905181019061134c91906118b6565b905080158061136357506001600160a01b0385163b155b1561139a576040517f045c4b0200000000000000000000000000000000000000000000000000000000815260040160405180910390fd5b5050505050565b60008083601f8401126113b357600080fd5b50813567ffffffffffffffff8111156113cb57600080fd5b6020830191508360208285010111156113e357600080fd5b9250929050565b60008060008060008060008060008060c08b8d03121561140957600080fd5b8a35995060208b013567ffffffffffffffff8082111561142857600080fd5b6114348e838f016113a1565b909b50995060408d013591508082111561144d57600080fd5b6114598e838f016113a1565b909950975060608d013591508082111561147257600080fd5b61147e8e838f016113a1565b909750955060808d013591508082111561149757600080fd5b506114a48d828e016113a1565b9150809450508092505060a08b013590509295989b9194979a5092959850565b6001600160a01b03811681146114d957600080fd5b50565b80356114e7816114c4565b919050565b60008060008060006080868803121561150457600080fd5b853594506020860135611516816114c4565b93506040860135611526816114c4565b9250606086013567ffffffffffffffff81111561154257600080fd5b61154e888289016113a1565b969995985093965092949392505050565b60008060008060008060006080888a03121561157a57600080fd5b87359650602088013567ffffffffffffffff8082111561159957600080fd5b6115a58b838c016113a1565b909850965060408a01359150808211156115be57600080fd5b6115ca8b838c016113a1565b909650945060608a01359150808211156115e357600080fd5b506115f08a828b016113a1565b989b979a50959850939692959293505050565b600080600080600080600080600080600060e08c8e03121561162457600080fd5b8b359a5067ffffffffffffffff8060208e0135111561164257600080fd5b6116528e60208f01358f016113a1565b909b50995060408d013581101561166857600080fd5b6116788e60408f01358f016113a1565b909950975061168960608e016114dc565b96508060808e0135111561169c57600080fd5b6116ac8e60808f01358f016113a1565b909650945060a08d01358110156116c257600080fd5b506116d38d60a08e01358e016113a1565b819450809350505060c08c013590509295989b509295989b9093969950565b60006020828403121561170457600080fd5b81356110a8816114c4565b6000806020838503121561172257600080fd5b823567ffffffffffffffff81111561173957600080fd5b611745858286016113a1565b90969095509350505050565b6000806000806060858703121561176757600080fd5b8435611772816114c4565b935060208501359250604085013567ffffffffffffffff81111561179557600080fd5b6117a1878288016113a1565b95989497509550505050565b600080604083850312156117c057600080fd5b8235915060208301356117d2816114c4565b809150509250929050565b6000806000606084860312156117f257600080fd5b83356117fd816114c4565b9250602084013561180d816114c4565b929592945050506040919091013590565b8183823760009101908152919050565b81835281816020850137506000828201602090810191909152601f909101601f19169091010190565b89815260c06020820152600061187160c083018a8c61182e565b828103604084015261188481898b61182e565b9050866060840152828103608084015261189f81868861182e565b9150508260a08301529a9950505050505050505050565b6000602082840312156118c857600080fd5b815180151581146110a857600080fd5b85815260006001600160a01b0380871660208401528086166040840152506080606083015261190b60808301848661182e565b979650505050505050565b6000825160005b81811015611937576020818601810151858301520161191d565b81811115611946576000828501525b509190910192915050565b60006020828403121561196357600080fd5b81516110a8816114c4565b86815260806020820152600061198860808301878961182e565b828103604084015261199b81868861182e565b915050826060830152979650505050505050565b8a815260c0602082015260006119c960c083018b8d61182e565b82810360408401526119dc818a8c61182e565b905082810360608401526119f181888a61182e565b90508281036080840152611a0681868861182e565b9150508260a08301529b9a5050505050505050505050565b602081526000611a3260208301848661182e565b949350505050565b60a081526000611a4e60a083018b8d61182e565b8281036020840152611a61818a8c61182e565b90508281036040840152611a7681888a61182e565b90508281036060840152611a8b81868861182e565b9150508260808301529a9950505050505050505050565b600060208284031215611ab457600080fd5b505191905056fea2646970667358221220c24ba7c472489fae90bfb8cbc478fcfd73ef84d246c684e81d7cb4a040bdbcfc64736f6c63430008090033",
  "linkReferences": {},
  "deployedLinkReferences": {}
}