{
  "_format": "hh-sol-artifact-1",
  "contractName": "AxelarTransceiver",
  "sourceName": "src/axelar/AxelarTransceiver.sol",
  "abi": [
    {
      "inputs": [
        {
          "internalType": "address",
          "name": "_gateway",
          "type": "address"
        },
        {
          "internalType": "address",
          "name": "_gasService",
          "type": "address"
        },
        {
          "internalType": "address",
          "name": "_manager",
          "type": "address"
        }
      ],
      "stateMutability": "nonpayable",
      "type": "constructor"
    },
    {
      "inputs": [
        {
          "internalType": "string",
          "name": "axelarChainId",
          "type": "string"
        }
      ],
      "name": "AxelarChainIdAlreadySet",
      "type": "error"
    },
    {
      "inputs": [
        {
          "internalType": "address",
          "name": "caller",
          "type": "address"
        }
      ],
      "name": "CallerNotNttManager",
      "type": "error"
    },
    {
      "inputs": [
        {
          "internalType": "address",
          "name": "currentOwner",
          "type": "address"
        }
      ],
      "name": "CannotRenounceTransceiverOwnership",
      "type": "error"
    },
    {
      "inputs": [
        {
          "internalType": "address",
          "name": "currentOwner",
          "type": "address"
        },
        {
          "internalType": "address",
          "name": "newOwner",
          "type": "address"
        }
      ],
      "name": "CannotTransferTransceiverOwnership",
      "type": "error"
    },
    {
      "inputs": [
        {
          "internalType": "uint16",
          "name": "chainId",
          "type": "uint16"
        }
      ],
      "name": "ChainIdAlreadySet",
      "type": "error"
    },
    {
      "inputs": [],
      "name": "InvalidAddress",
      "type": "error"
    },
    {
      "inputs": [
        {
          "internalType": "uint16",
          "name": "chainId",
          "type": "uint16"
        },
        {
          "internalType": "string",
          "name": "chainName",
          "type": "string"
        },
        {
          "internalType": "string",
          "name": "transceiverAddress",
          "type": "string"
        }
      ],
      "name": "InvalidChainId",
      "type": "error"
    },
    {
      "inputs": [],
      "name": "InvalidChainIdParams",
      "type": "error"
    },
    {
      "inputs": [],
      "name": "InvalidInitialization",
      "type": "error"
    },
    {
      "inputs": [
        {
          "internalType": "address",
          "name": "account",
          "type": "address"
        }
      ],
      "name": "InvalidPauser",
      "type": "error"
    },
    {
      "inputs": [
        {
          "internalType": "uint16",
          "name": "chainId",
          "type": "uint16"
        },
        {
          "internalType": "string",
          "name": "sourceChain",
          "type": "string"
        },
        {
          "internalType": "string",
          "name": "sourceAddress",
          "type": "string"
        }
      ],
      "name": "InvalidSibling",
      "type": "error"
    },
    {
      "inputs": [
        {
          "internalType": "bytes32",
          "name": "",
          "type": "bytes32"
        }
      ],
      "name": "NotAnEvmAddress",
      "type": "error"
    },
    {
      "inputs": [],
      "name": "NotApprovedByGateway",
      "type": "error"
    },
    {
      "inputs": [],
      "name": "NotInitializing",
      "type": "error"
    },
    {
      "inputs": [],
      "name": "NotMigrating",
      "type": "error"
    },
    {
      "inputs": [],
      "name": "OnlyDelegateCall",
      "type": "error"
    },
    {
      "inputs": [
        {
          "internalType": "address",
          "name": "owner",
          "type": "address"
        }
      ],
      "name": "OwnableInvalidOwner",
      "type": "error"
    },
    {
      "inputs": [
        {
          "internalType": "address",
          "name": "account",
          "type": "address"
        }
      ],
      "name": "OwnableUnauthorizedAccount",
      "type": "error"
    },
    {
      "inputs": [],
      "name": "ReentrancyGuardReentrantCall",
      "type": "error"
    },
    {
      "inputs": [],
      "name": "RequireContractIsNotPaused",
      "type": "error"
    },
    {
      "inputs": [],
      "name": "RequireContractIsPaused",
      "type": "error"
    },
    {
      "inputs": [
        {
          "internalType": "address",
          "name": "deployer",
          "type": "address"
        },
        {
          "internalType": "address",
          "name": "caller",
          "type": "address"
        }
      ],
      "name": "UnexpectedDeployer",
      "type": "error"
    },
    {
      "inputs": [
        {
          "internalType": "bytes32",
          "name": "recipientNttManagerAddress",
          "type": "bytes32"
        },
        {
          "internalType": "bytes32",
          "name": "expectedRecipientNttManagerAddress",
          "type": "bytes32"
        }
      ],
      "name": "UnexpectedRecipientNttManagerAddress",
      "type": "error"
    },
    {
      "anonymous": false,
      "inputs": [
        {
          "indexed": false,
          "internalType": "address",
          "name": "previousAdmin",
          "type": "address"
        },
        {
          "indexed": false,
          "internalType": "address",
          "name": "newAdmin",
          "type": "address"
        }
      ],
      "name": "AdminChanged",
      "type": "event"
    },
    {
      "anonymous": false,
      "inputs": [
        {
          "indexed": false,
          "internalType": "uint16",
          "name": "chainId",
          "type": "uint16"
        },
        {
          "indexed": false,
          "internalType": "string",
          "name": "chainName",
          "type": "string"
        },
        {
          "indexed": false,
          "internalType": "string",
          "name": "transceiverAddress",
          "type": "string"
        }
      ],
      "name": "AxelarChainIdSet",
      "type": "event"
    },
    {
      "anonymous": false,
      "inputs": [
        {
          "indexed": true,
          "internalType": "address",
          "name": "beacon",
          "type": "address"
        }
      ],
      "name": "BeaconUpgraded",
      "type": "event"
    },
    {
      "anonymous": false,
      "inputs": [
        {
          "indexed": false,
          "internalType": "uint64",
          "name": "version",
          "type": "uint64"
        }
      ],
      "name": "Initialized",
      "type": "event"
    },
    {
      "anonymous": false,
      "inputs": [
        {
          "indexed": false,
          "internalType": "bool",
          "name": "notPaused",
          "type": "bool"
        }
      ],
      "name": "NotPaused",
      "type": "event"
    },
    {
      "anonymous": false,
      "inputs": [
        {
          "indexed": true,
          "internalType": "address",
          "name": "previousOwner",
          "type": "address"
        },
        {
          "indexed": true,
          "internalType": "address",
          "name": "newOwner",
          "type": "address"
        }
      ],
      "name": "OwnershipTransferred",
      "type": "event"
    },
    {
      "anonymous": false,
      "inputs": [
        {
          "indexed": false,
          "internalType": "bool",
          "name": "paused",
          "type": "bool"
        }
      ],
      "name": "Paused",
      "type": "event"
    },
    {
      "anonymous": false,
      "inputs": [
        {
          "indexed": true,
          "internalType": "address",
          "name": "oldPauser",
          "type": "address"
        },
        {
          "indexed": true,
          "internalType": "address",
          "name": "newPauser",
          "type": "address"
        }
      ],
      "name": "PauserTransferred",
      "type": "event"
    },
    {
      "anonymous": false,
      "inputs": [
        {
          "indexed": true,
          "internalType": "uint16",
          "name": "recipientChainId",
          "type": "uint16"
        },
        {
          "indexed": false,
          "internalType": "bytes",
          "name": "nttManagerMessage",
          "type": "bytes"
        },
        {
          "indexed": true,
          "internalType": "bytes32",
          "name": "recipientNttManagerAddress",
          "type": "bytes32"
        },
        {
          "indexed": true,
          "internalType": "bytes32",
          "name": "refundAddress",
          "type": "bytes32"
        }
      ],
      "name": "SendTransceiverMessage",
      "type": "event"
    },
    {
      "anonymous": false,
      "inputs": [
        {
          "indexed": true,
          "internalType": "address",
          "name": "implementation",
          "type": "address"
        }
      ],
      "name": "Upgraded",
      "type": "event"
    },
    {
      "inputs": [],
      "name": "AXELAR_TRANSCEIVER_VERSION",
      "outputs": [
        {
          "internalType": "string",
          "name": "",
          "type": "string"
        }
      ],
      "stateMutability": "view",
      "type": "function"
    },
    {
      "inputs": [
        {
          "internalType": "bytes32",
          "name": "commandId",
          "type": "bytes32"
        },
        {
          "internalType": "string",
          "name": "sourceChain",
          "type": "string"
        },
        {
          "internalType": "string",
          "name": "sourceAddress",
          "type": "string"
        },
        {
          "internalType": "bytes",
          "name": "payload",
          "type": "bytes"
        }
      ],
      "name": "execute",
      "outputs": [],
      "stateMutability": "nonpayable",
      "type": "function"
    },
    {
      "inputs": [],
      "name": "gasService",
      "outputs": [
        {
          "internalType": "contract IAxelarGasService",
          "name": "",
          "type": "address"
        }
      ],
      "stateMutability": "view",
      "type": "function"
    },
    {
      "inputs": [],
      "name": "gateway",
      "outputs": [
        {
          "internalType": "contract IAxelarGMPGateway",
          "name": "",
          "type": "address"
        }
      ],
      "stateMutability": "view",
      "type": "function"
    },
    {
      "inputs": [],
      "name": "getMigratesImmutables",
      "outputs": [
        {
          "internalType": "bool",
          "name": "",
          "type": "bool"
        }
      ],
      "stateMutability": "view",
      "type": "function"
    },
    {
      "inputs": [],
      "name": "getNttManagerOwner",
      "outputs": [
        {
          "internalType": "address",
          "name": "",
          "type": "address"
        }
      ],
      "stateMutability": "view",
      "type": "function"
    },
    {
      "inputs": [],
      "name": "getNttManagerToken",
      "outputs": [
        {
          "internalType": "address",
          "name": "",
          "type": "address"
        }
      ],
      "stateMutability": "view",
      "type": "function"
    },
    {
      "inputs": [],
      "name": "getTransceiverType",
      "outputs": [
        {
          "internalType": "string",
          "name": "",
          "type": "string"
        }
      ],
      "stateMutability": "view",
      "type": "function"
    },
    {
      "inputs": [],
      "name": "initialize",
      "outputs": [],
      "stateMutability": "payable",
      "type": "function"
    },
    {
      "inputs": [],
      "name": "isPaused",
      "outputs": [
        {
          "internalType": "bool",
          "name": "",
          "type": "bool"
        }
      ],
      "stateMutability": "view",
      "type": "function"
    },
    {
      "inputs": [],
      "name": "migrate",
      "outputs": [],
      "stateMutability": "nonpayable",
      "type": "function"
    },
    {
      "inputs": [],
      "name": "nttManager",
      "outputs": [
        {
          "internalType": "address",
          "name": "",
          "type": "address"
        }
      ],
      "stateMutability": "view",
      "type": "function"
    },
    {
      "inputs": [],
      "name": "nttManagerToken",
      "outputs": [
        {
          "internalType": "address",
          "name": "",
          "type": "address"
        }
      ],
      "stateMutability": "view",
      "type": "function"
    },
    {
      "inputs": [],
      "name": "owner",
      "outputs": [
        {
          "internalType": "address",
          "name": "",
          "type": "address"
        }
      ],
      "stateMutability": "view",
      "type": "function"
    },
    {
      "inputs": [],
      "name": "pauser",
      "outputs": [
        {
          "internalType": "address",
          "name": "",
          "type": "address"
        }
      ],
      "stateMutability": "view",
      "type": "function"
    },
    {
      "inputs": [
        {
          "internalType": "uint16",
          "name": "targetChain",
          "type": "uint16"
        },
        {
          "components": [
            {
              "internalType": "uint8",
              "name": "index",
              "type": "uint8"
            },
            {
              "internalType": "bytes",
              "name": "payload",
              "type": "bytes"
            }
          ],
          "internalType": "struct TransceiverStructs.TransceiverInstruction",
          "name": "instruction",
          "type": "tuple"
        }
      ],
      "name": "quoteDeliveryPrice",
      "outputs": [
        {
          "internalType": "uint256",
          "name": "",
          "type": "uint256"
        }
      ],
      "stateMutability": "view",
      "type": "function"
    },
    {
      "inputs": [
        {
          "internalType": "uint16",
          "name": "recipientChain",
          "type": "uint16"
        },
        {
          "components": [
            {
              "internalType": "uint8",
              "name": "index",
              "type": "uint8"
            },
            {
              "internalType": "bytes",
              "name": "payload",
              "type": "bytes"
            }
          ],
          "internalType": "struct TransceiverStructs.TransceiverInstruction",
          "name": "instruction",
          "type": "tuple"
        },
        {
          "internalType": "bytes",
          "name": "nttManagerMessage",
          "type": "bytes"
        },
        {
          "internalType": "bytes32",
          "name": "recipientNttManagerAddress",
          "type": "bytes32"
        },
        {
          "internalType": "bytes32",
          "name": "refundAddress",
          "type": "bytes32"
        }
      ],
      "name": "sendMessage",
      "outputs": [],
      "stateMutability": "payable",
      "type": "function"
    },
    {
      "inputs": [
        {
          "internalType": "uint16",
          "name": "chainId",
          "type": "uint16"
        },
        {
          "internalType": "string",
          "name": "chainName",
          "type": "string"
        },
        {
          "internalType": "string",
          "name": "transceiverAddress",
          "type": "string"
        }
      ],
      "name": "setAxelarChainId",
      "outputs": [],
      "stateMutability": "nonpayable",
      "type": "function"
    },
    {
      "inputs": [
        {
          "internalType": "address",
          "name": "newOwner",
          "type": "address"
        }
      ],
      "name": "transferOwnership",
      "outputs": [],
      "stateMutability": "nonpayable",
      "type": "function"
    },
    {
      "inputs": [
        {
          "internalType": "address",
          "name": "newPauser",
          "type": "address"
        }
      ],
      "name": "transferPauserCapability",
      "outputs": [],
      "stateMutability": "nonpayable",
      "type": "function"
    },
    {
      "inputs": [
        {
          "internalType": "address",
          "name": "newOwner",
          "type": "address"
        }
      ],
      "name": "transferTransceiverOwnership",
      "outputs": [],
      "stateMutability": "nonpayable",
      "type": "function"
    },
    {
      "inputs": [
        {
          "internalType": "address",
          "name": "newImplementation",
          "type": "address"
        }
      ],
      "name": "upgrade",
      "outputs": [],
      "stateMutability": "nonpayable",
      "type": "function"
    }
  ],
  "bytecode": "0x6101406040523480156200001257600080fd5b506040516200290e3803806200290e8339810160408190526200003591620001e0565b80836001600160a01b0381166200005f5760405163e6c4247b60e01b815260040160405180910390fd5b6001600160a01b0316608052620000756200010f565b3060a0526001600160a01b03811660c081905260408051637e062a3560e11b8152905163fc0c546a916004808201926020929091908290030181865afa158015620000c4573d6000803e3d6000fd5b505050506040513d601f19601f82011682018060405250810190620000ea91906200022a565b6001600160a01b0390811660e05233610100529290921661012052506200024f915050565b7ff0c57e16840df040f15088dc2f81fe391c3923bec73e23a9662efc9c229c6a00805468010000000000000000900460ff1615620001605760405163f92ee8a960e01b815260040160405180910390fd5b80546001600160401b0390811614620001c05780546001600160401b0319166001600160401b0390811782556040519081527fc7f505b2f371ae2175ee4913f4499e1f2633a7b5936321eed1cdaeb6115181d29060200160405180910390a15b50565b80516001600160a01b0381168114620001db57600080fd5b919050565b600080600060608486031215620001f657600080fd5b6200020184620001c3565b92506200021160208501620001c3565b91506200022160408501620001c3565b90509250925092565b6000602082840312156200023d57600080fd5b6200024882620001c3565b9392505050565b60805160a05160c05160e05161010051610120516125f862000316600039600081816102f1015281816113f7015281816114ce01526117750152600081816112a801526112e401526000818161018e015281816102bb01526119f9015260008181610212015281816105e30152818161067201528181610b18015281816110eb015281816116350152818161166a015281816116bd01526119570152600061125e0152600081816101dc015281816105000152818161157001526117ef01526125f86000f3fe6080604052600436106101355760003560e01c80638129fc1c116100ab5780639fd0506d1161006f5780639fd0506d146103a3578063a0926b2a146103b8578063b187bd26146103e7578063b5634c73146103fc578063d8d284181461042a578063f2fde38b1461043f57600080fd5b80638129fc1c14610313578063838824741461031b5780638da5cb5b1461033b5780638fd3ab8014610350578063939cd5af1461036557600080fd5b806349160658116100fd57806349160658146102345780634b5b05051461025457806358f709ba14610267578063689f90c314610287578063694977d7146102ac5780636a22d8cc146102df57600080fd5b8063036de8af1461013a5780630900f0101461015c5780630b4a1e891461017c578063116191b6146101cd57806324fb21db14610200575b600080fd5b34801561014657600080fd5b5061015a610155366004611b22565b61045f565b005b34801561016857600080fd5b5061015a610177366004611b22565b6104cb565b34801561018857600080fd5b506101b07f000000000000000000000000000000000000000000000000000000000000000081565b6040516001600160a01b0390911681526020015b60405180910390f35b3480156101d957600080fd5b507f00000000000000000000000000000000000000000000000000000000000000006101b0565b34801561020c57600080fd5b506101b07f000000000000000000000000000000000000000000000000000000000000000081565b34801561024057600080fd5b5061015a61024f366004611b8e565b6104df565b61015a610262366004611db2565b6105d0565b34801561027357600080fd5b5061015a610282366004611b22565b610667565b34801561029357600080fd5b5061029c6106bb565b60405190151581526020016101c4565b3480156102b857600080fd5b507f00000000000000000000000000000000000000000000000000000000000000006101b0565b3480156102eb57600080fd5b506101b07f000000000000000000000000000000000000000000000000000000000000000081565b61015a6106ce565b34801561032757600080fd5b5061015a610336366004611e37565b6107cf565b34801561034757600080fd5b506101b0610991565b34801561035c57600080fd5b5061015a6109bf565b34801561037157600080fd5b50610396604051806040016040528060058152602001640312e312e360dc1b81525081565b6040516101c49190611f07565b3480156103af57600080fd5b506101b0610ad1565b3480156103c457600080fd5b5060408051808201909152600681526530bc32b630b960d11b6020820152610396565b3480156103f357600080fd5b5061029c610aea565b34801561040857600080fd5b5061041c610417366004611f1a565b610aff565b6040519081526020016101c4565b34801561043657600080fd5b506101b0610b14565b34801561044b57600080fd5b5061015a61045a366004611b22565b610b9d565b61046f61046a610991565b610bcf565b6000610479610c18565b80546001600160a01b038481166001600160a01b031983168117845560405193945091169182907f51c4874e0f23f262e04a38c51751336dde72126d67f53eb672aaff02996b3ef690600090a3505050565b6104d3610c46565b6104dc81610c7a565b50565b600082826040516104f1929190611f67565b604051809103902090506105227f000000000000000000000000000000000000000000000000000000000000000090565b6001600160a01b0316635f6970c38989898989876040518763ffffffff1660e01b815260040161055796959493929190611fa0565b6020604051808303816000875af1158015610576573d6000803e3d6000fd5b505050506040513d601f19601f8201168201806040525081019061059a9190611fe1565b6105b757604051631403112d60e21b815260040160405180910390fd5b6105c688888888888888610d88565b5050505050505050565b6105d8610ef8565b336001600160a01b037f000000000000000000000000000000000000000000000000000000000000000016146106285760405163c5aa615360e01b81523360048201526024015b60405180910390fd5b61063785343385858989610f42565b61066060017f9b779b17422d0df92223018b32b4d1fa46e071723d6817e2486d003becc55f0055565b5050505050565b336001600160a01b037f000000000000000000000000000000000000000000000000000000000000000016146106b25760405163c5aa615360e01b815233600482015260240161061f565b6104dc816111b5565b60006106c5611226565b5460ff16919050565b6106d6611254565b6000805160206125a38339815191528054600160401b810460ff1615906001600160401b03166000811580156107095750825b90506000826001600160401b031660011480156107255750303b155b905081158015610733575080155b156107515760405163f92ee8a960e01b815260040160405180910390fd5b845467ffffffffffffffff19166001178555831561077b57845460ff60401b1916600160401b1785555b61078361129d565b831561066057845460ff60401b19168555604051600181527fc7f505b2f371ae2175ee4913f4499e1f2633a7b5936321eed1cdaeb6115181d29060200160405180910390a15050505050565b6107d7610c46565b61ffff851615806107e6575082155b806107ef575080155b1561080d57604051630449684f60e21b815260040160405180910390fd5b61ffff8516600090815260008051602061258383398151915260208190526040909120805461083b90612003565b15905061086157604051634f666d5f60e01b815261ffff8716600482015260240161061f565b806001018585604051610875929190611f67565b9081526040519081900360200190205461ffff16156108ab57848460405163588ce00760e01b815260040161061f92919061203d565b61ffff861660009081526020829052604090206108c98587836120a2565b50858160010186866040516108df929190611f67565b9081526040805160209281900383019020805461ffff191661ffff9485161790559188166000908152600284019091522061091b8385836120a2565b50828260405161092c929190611f67565b6040805191829003822061ffff891660009081526003850160205291909120557f5d28e8e05e7fe8e7772fb46ae36c38ef4f14fba0293381135a9de352243b30f3906109819088908890889088908890612161565b60405180910390a1505050505050565b7f9016d09d72d40fdae2fd8ceac6b6234c7706214fd39c1cd1e609a0528c199300546001600160a01b031690565b6109c7611254565b6000805160206125a3833981519152546001600160401b03166109eb9060016121b4565b6000805160206125a38339815191528054600160401b900460ff1680610a1e575080546001600160401b03808416911610155b15610a3c5760405163f92ee8a960e01b815260040160405180910390fd5b805468ffffffffffffffffff19166001600160401b03831617600160401b178155610a65611330565b5460ff16610a8657604051632866815360e11b815260040160405180910390fd5b805460ff60401b191681556040516001600160401b03831681527fc7f505b2f371ae2175ee4913f4499e1f2633a7b5936321eed1cdaeb6115181d29060200160405180910390a15050565b6000610adb610c18565b546001600160a01b0316919050565b600080610af561135e565b5460021492915050565b6000610b0b838361138c565b90505b92915050565b60007f00000000000000000000000000000000000000000000000000000000000000006001600160a01b0316638da5cb5b6040518163ffffffff1660e01b8152600401602060405180830381865afa158015610b74573d6000803e3d6000fd5b505050506040513d601f19601f82011682018060405250810190610b9891906121db565b905090565b610ba5610c46565b6001600160a01b0381166106b257604051631e4fbdf760e01b81526000600482015260240161061f565b33610bd8610ad1565b6001600160a01b031614158015610bf857506001600160a01b0381163314155b156104dc5760405163e2a08e5d60e01b815233600482015260240161061f565b600080610b0e60017fbfa91572ce1e5fe8776a160d3b1f862e83f5ee2c080a7423b4761602a3ad124a6121f8565b33610c4f610991565b6001600160a01b031614610c785760405163118cdaa760e01b815233600482015260240161061f565b565b610c82611254565b610c8b81611484565b6000610c95611330565b805490915060ff1615610caa57610caa61220b565b805460ff191660011781556040805163011fa75760e71b815290513091638fd3ab8091600480830192600092919082900301818387803b158015610ced57600080fd5b505af1158015610d01573d6000803e3d6000fd5b50505050306001600160a01b031663689f90c36040518163ffffffff1660e01b8152600401602060405180830381865afa158015610d43573d6000803e3d6000fd5b505050506040513d601f19601f82011682018060405250810190610d679190611fe1565b610d7357610d736114c4565b610d7d6000611610565b805460ff1916905550565b604051600080516020612583833981519152906000907f6d72a7741b755e11bdb1cef6ed3f290bbe196e69da228a3ae322e5bc37ea760190610dcd908a908a90611f67565b9081526040519081900360200190205461ffff169050801580610e1f57508585604051610dfb929190611f67565b604080519182900390912061ffff8316600090815260038501602052919091205414155b15610e47578088888888604051630adc4c9960e21b815260040161061f959493929190612161565b60008080610e5786880188612221565b925092509250600073__$3a35edd6b3039ed7bfdd08ed34efbcdda7$__63107383fb846040518263ffffffff1660e01b8152600401610e969190611f07565b600060405180830381865af4158015610eb3573d6000803e3d6000fd5b505050506040513d6000823e601f3d908101601f19168201604052610edb9190810190612270565b9050610ee98585848461162b565b50505050505050505050505050565b7f9b779b17422d0df92223018b32b4d1fa46e071723d6817e2486d003becc55f00805460011901610f3c57604051633ee5aeb560e01b815260040160405180910390fd5b60029055565b61ffff871660009081527f6d72a7741b755e11bdb1cef6ed3f290bbe196e69da228a3ae322e5bc37ea7602602052604081208054600080516020612583833981519152929190610f9190612003565b80601f0160208091040260200160405190810160405280929190818152602001828054610fbd90612003565b801561100a5780601f10610fdf5761010080835404028352916020019161100a565b820191906000526020600020905b815481529060010190602001808311610fed57829003601f168201915b50505061ffff8c166000908152602086905260408120805494955090939092506110349150612003565b80601f016020809104026020016040519081016040528092919081815260200182805461106090612003565b80156110ad5780601f10611082576101008083540402835291602001916110ad565b820191906000526020600020905b81548152906001019060200180831161109057829003601f168201915b505050505090508051600014806110c357508151155b156110e75789818360405163068df1f560e31b815260040161061f9392919061232b565b60007f0000000000000000000000000000000000000000000000000000000000000000858960405160200161111e93929190612364565b604051602081830303815290604052905061114482848361113e8b611724565b8e611750565b86888c61ffff167fcdba4baae54ffe4453599128e176cfa8a3190fff44e9f60a444875db7fb0572a8860405161117a9190611f07565b60405180910390a45050505050505050505050565b60017f9b779b17422d0df92223018b32b4d1fa46e071723d6817e2486d003becc55f0055565b7f9016d09d72d40fdae2fd8ceac6b6234c7706214fd39c1cd1e609a0528c19930080546001600160a01b031981166001600160a01b03848116918217845560405192169182907f8be0079c531659141344cd1fd0a4f28419497f9722a3daafe3b4186f6b6457e090600090a3505050565b600080610b0e60017f5443fea4dc453d96b81ce55b62e11a4094cc4cbb8a360956a7253cfdb42506cc6121f8565b6001600160a01b037f0000000000000000000000000000000000000000000000000000000000000000163003610c7857604051633c64f99360e21b815260040160405180910390fd5b336001600160a01b037f0000000000000000000000000000000000000000000000000000000000000000161461131757604051636345072160e11b81526001600160a01b037f000000000000000000000000000000000000000000000000000000000000000016600482015233602482015260440161061f565b61131f611879565b610c783361132b610b14565b611889565b600080610b0e60017f7487ca88d037ca20519908b1ee7556206bef53bce0226a348750cb9d4f688e4f6121f8565b600080610b0e60017f64bacf405c5d7f563d3ba5252584a52c37e4fee380fd825b10666c27b82580236121f8565b61ffff82166000908152600080516020612583833981519152602081815260408084207f6d72a7741b755e11bdb1cef6ed3f290bbe196e69da228a3ae322e5bc37ea7602835281852082518085018452868152835194850184528685529251630135eaa760e41b81527f00000000000000000000000000000000000000000000000000000000000000006001600160a01b03169463135eaa709461143b949392909162030d4091600401612415565b602060405180830381865afa158015611458573d6000803e3d6000fd5b505050506040513d601f19601f8201168201806040525081019061147c9190612468565b949350505050565b61148d816118a7565b6040516001600160a01b038216907fbc7cd75a20ee27fd9adebab32041f755214dbc6bffa90cc0225b39da2e5c2d3b90600090a250565b6114cc611955565b7f00000000000000000000000000000000000000000000000000000000000000006001600160a01b0316306001600160a01b0316636a22d8cc6040518163ffffffff1660e01b8152600401602060405180830381865afa158015611534573d6000803e3d6000fd5b505050506040513d601f19601f8201168201806040525081019061155891906121db565b6001600160a01b03161461156e5761156e61220b565b7f00000000000000000000000000000000000000000000000000000000000000006001600160a01b0316306001600160a01b031663116191b66040518163ffffffff1660e01b8152600401602060405180830381865afa1580156115d6573d6000803e3d6000fd5b505050506040513d601f19601f820116820180604052508101906115fa91906121db565b6001600160a01b031614610c7857610c7861220b565b80611619611226565b805460ff191691151591909117905550565b6001600160a01b037f00000000000000000000000000000000000000000000000000000000000000001682146116a6576040516339dee99160e11b81527f00000000000000000000000000000000000000000000000000000000000000006001600160a01b031660048201526024810183905260440161061f565b60405163275e091560e21b81526001600160a01b037f00000000000000000000000000000000000000000000000000000000000000001690639d782454906116f690879087908690600401612481565b600060405180830381600087803b15801561171057600080fd5b505af11580156105c6573d6000803e3d6000fd5b600060a082901c1561174c5760405163033b960d60e41b81526004810183905260240161061f565b5090565b60408051602081018252600080825291516376fc9b7960e11b81526001600160a01b037f0000000000000000000000000000000000000000000000000000000000000000169263edf936f29285926117b89230928c928c928c92909182918d916004016124c1565b6000604051808303818588803b1580156117d157600080fd5b505af11580156117e5573d6000803e3d6000fd5b50505050506118117f000000000000000000000000000000000000000000000000000000000000000090565b6001600160a01b0316631c92115f8686866040518463ffffffff1660e01b815260040161184093929190612549565b600060405180830381600087803b15801561185a57600080fd5b505af115801561186e573d6000803e3d6000fd5b505050505050505050565b611881611a5f565b610c78611a96565b611891611a5f565b61189a82611a9e565b6118a381611aaf565b5050565b6001600160a01b0381163b6119145760405162461bcd60e51b815260206004820152602d60248201527f455243313936373a206e657720696d706c656d656e746174696f6e206973206e60448201526c1bdd08184818dbdb9d1c9858dd609a1b606482015260840161061f565b7f360894a13ba1a3210667c828492db98dca3e2076cc3735a920a3ca505d382bbc80546001600160a01b0319166001600160a01b0392909216919091179055565b7f00000000000000000000000000000000000000000000000000000000000000006001600160a01b0316306001600160a01b03166324fb21db6040518163ffffffff1660e01b8152600401602060405180830381865afa1580156119bd573d6000803e3d6000fd5b505050506040513d601f19601f820116820180604052508101906119e191906121db565b6001600160a01b0316146119f7576119f761220b565b7f00000000000000000000000000000000000000000000000000000000000000006001600160a01b0316306001600160a01b0316630b4a1e896040518163ffffffff1660e01b8152600401602060405180830381865afa1580156115d6573d6000803e3d6000fd5b6000805160206125a383398151915254600160401b900460ff16610c7857604051631afcd79f60e31b815260040160405180910390fd5b61118f611a5f565b611aa6611a5f565b6104dc81611ac0565b611ab7611a5f565b6104dc81611b05565b611ac8611a5f565b6000611ad261135e565b6001815590506000611ae2610c18565b80546001600160a01b0319166001600160a01b0394909416939093179092555050565b610ba5611a5f565b6001600160a01b03811681146104dc57600080fd5b600060208284031215611b3457600080fd5b8135611b3f81611b0d565b9392505050565b60008083601f840112611b5857600080fd5b5081356001600160401b03811115611b6f57600080fd5b602083019150836020828501011115611b8757600080fd5b9250929050565b60008060008060008060006080888a031215611ba957600080fd5b8735965060208801356001600160401b0380821115611bc757600080fd5b611bd38b838c01611b46565b909850965060408a0135915080821115611bec57600080fd5b611bf88b838c01611b46565b909650945060608a0135915080821115611c1157600080fd5b50611c1e8a828b01611b46565b989b979a50959850939692959293505050565b803561ffff81168114611c4357600080fd5b919050565b634e487b7160e01b600052604160045260246000fd5b604051606081016001600160401b0381118282101715611c8057611c80611c48565b60405290565b604051601f8201601f191681016001600160401b0381118282101715611cae57611cae611c48565b604052919050565b60006001600160401b03821115611ccf57611ccf611c48565b50601f01601f191660200190565b600082601f830112611cee57600080fd5b8135611d01611cfc82611cb6565b611c86565b818152846020838601011115611d1657600080fd5b816020850160208301376000918101602001919091529392505050565b600060408284031215611d4557600080fd5b604051604081016001600160401b038282108183111715611d6857611d68611c48565b816040528293508435915060ff82168214611d8257600080fd5b90825260208401359080821115611d9857600080fd5b50611da585828601611cdd565b6020830152505092915050565b600080600080600060a08688031215611dca57600080fd5b611dd386611c31565b945060208601356001600160401b0380821115611def57600080fd5b611dfb89838a01611d33565b95506040880135915080821115611e1157600080fd5b50611e1e88828901611cdd565b9598949750949560608101359550608001359392505050565b600080600080600060608688031215611e4f57600080fd5b611e5886611c31565b945060208601356001600160401b0380821115611e7457600080fd5b611e8089838a01611b46565b90965094506040880135915080821115611e9957600080fd5b50611ea688828901611b46565b969995985093965092949392505050565b60005b83811015611ed2578181015183820152602001611eba565b50506000910152565b60008151808452611ef3816020860160208601611eb7565b601f01601f19169290920160200192915050565b602081526000610b0b6020830184611edb565b60008060408385031215611f2d57600080fd5b611f3683611c31565b915060208301356001600160401b03811115611f5157600080fd5b611f5d85828601611d33565b9150509250929050565b8183823760009101908152919050565b81835281816020850137506000828201602090810191909152601f909101601f19169091010190565b868152608060208201526000611fba608083018789611f77565b8281036040840152611fcd818688611f77565b915050826060830152979650505050505050565b600060208284031215611ff357600080fd5b81518015158114611b3f57600080fd5b600181811c9082168061201757607f821691505b60208210810361203757634e487b7160e01b600052602260045260246000fd5b50919050565b60208152600061147c602083018486611f77565b601f82111561209d576000816000526020600020601f850160051c8101602086101561207a5750805b601f850160051c820191505b8181101561209957828155600101612086565b5050505b505050565b6001600160401b038311156120b9576120b9611c48565b6120cd836120c78354612003565b83612051565b6000601f84116001811461210157600085156120e95750838201355b600019600387901b1c1916600186901b178355610660565b600083815260209020601f19861690835b828110156121325786850135825560209485019460019092019101612112565b508682101561214f5760001960f88860031b161c19848701351681555b505060018560011b0183555050505050565b61ffff8616815260606020820152600061217f606083018688611f77565b8281036040840152612192818587611f77565b98975050505050505050565b634e487b7160e01b600052601160045260246000fd5b6001600160401b038181168382160190808211156121d4576121d461219e565b5092915050565b6000602082840312156121ed57600080fd5b8151611b3f81611b0d565b81810381811115610b0e57610b0e61219e565b634e487b7160e01b600052600160045260246000fd5b60008060006060848603121561223657600080fd5b8335925060208401356001600160401b0381111561225357600080fd5b61225f86828701611cdd565b925050604084013590509250925092565b6000602080838503121561228357600080fd5b82516001600160401b038082111561229a57600080fd5b90840190606082870312156122ae57600080fd5b6122b6611c5e565b8251815283830151848201526040830151828111156122d457600080fd5b80840193505086601f8401126122e957600080fd5b825191506122f9611cfc83611cb6565b828152878584860101111561230d57600080fd5b61231c83868301878701611eb7565b60408201529695505050505050565b61ffff841681526060602082015260006123486060830185611edb565b828103604084015261235a8185611edb565b9695505050505050565b6001600160a01b038416815260606020820181905260009061238890830185611edb565b9050826040830152949350505050565b600081546123a581612003565b8085526020600183811680156123c257600181146123dc5761240a565b60ff1985168884015283151560051b88018301955061240a565b866000528260002060005b858110156124025781548a82018601529083019084016123e7565b890184019650505b505050505092915050565b60a08152600061242860a0830188612398565b828103602084015261243a8188612398565b9050828103604084015261244e8187611edb565b905084606084015282810360808401526121928185611edb565b60006020828403121561247a57600080fd5b5051919050565b61ffff8416815282602082015260606040820152815160608201526020820151608082015260006040830151606060a084015261235a60c0840182611edb565b6001600160a01b038981168252610100602083018190526000916124e78483018c611edb565b915083820360408501526124fb828b611edb565b9150838203606085015261250f828a611edb565b915087608085015286151560a085015280861660c08501525082810360e084015261253a8185611edb565b9b9a5050505050505050505050565b60608152600061255c6060830186611edb565b828103602084015261256e8186611edb565b9050828103604084015261235a8185611edb56fe6d72a7741b755e11bdb1cef6ed3f290bbe196e69da228a3ae322e5bc37ea7600f0c57e16840df040f15088dc2f81fe391c3923bec73e23a9662efc9c229c6a00a2646970667358221220307737ae1d0fbdb074e34eead9c2631fb5569e219220c924da46533d60927a3064736f6c63430008170033",
  "linkReferences": {
    "@wormhole-foundation/native_token_transfer/libraries/TransceiverStructs.sol": {
      "TransceiverStructs": [
        {
          "length": 20,
          "start": 4471
        }
      ]
    }
  },
  "deployedLinkReferences": {
    "@wormhole-foundation/native_token_transfer/libraries/TransceiverStructs.sol": {
      "TransceiverStructs": [
        {
          "length": 20,
          "start": 3681
        }
      ]
    }
  }
}